:100000000C9496000C9497020C9497020C9497020F
:100010000C9497020C9497020C9497020C949702FC
:100020000C9497020C9497020C9497020C949702EC
:100030000C9497020C9497020C9497020C949702DC
:100040000C9497020C9497020C9497020C949702CC
:100050000C949702AE00C700E000F90011011101F5
:100060001101110111011101110111011101110100
:1000700011011101110111011101110111011101F0
:1000800011011101110111011101110111011101E0
:1000900011011101AE00C700E000F9001E01370197
:1000A0005001690181018101810181018101810189
:1000B0008101810181018101810181018101810130
:1000C0008101810181018101810181018101810120
:1000D0008101810181018101810181011E013701BD
:1000E000500169019101A601BB01D001E401E401C5
:1000F000E401E401E401E401E401E401E401E401D8
:10010000E401E401E401E401E401E401E401E401C7
:10011000E401E401E401E401E401E401E401E401B7
:10012000E401E4019101A601BB01D00111241FBE2D
:10013000CFE5D8E0DEBFCDBF0E94E8010C9473028A
:04014000F894FFCF61
:1001440090E0FC01E154F109E432F10508F067C0E4
:10015400E65DFF4F0C947E02413059F42AB381E0EE
:1001640090E002C0880F991F6A95E2F7822B8ABB40
:1001740008952AB381E090E002C0880F991F6A9520
:10018400E2F7809582238ABB0895413059F427B35E
:1001940081E090E002C0880F991F6A95E2F7822BF4
:1001A40087BB089527B381E090E002C0880F991FB0
:1001B4006A95E2F78095822387BB0895413059F40C
:1001C40024B381E090E002C0880F991F6A95E2F79A
:1001D400822B84BB089524B381E090E002C0880F91
:1001E400991F6A95E2F78095822384BB0895413074
:1001F40059F421B381E090E002C0880F991F6A95F9
:10020400E2F7822B81BB089521B381E090E002C024
:10021400880F991F6A95E2F78095822381BB089520
:1002240090E0FC01E154F109E432F10508F067C003
:10023400E25BFF4F0C947E02413059F42BB381E012
:1002440090E002C0880F991F6A95E2F7822B8BBB5E
:1002540008952BB381E090E002C0880F991F6A953E
:10026400E2F7809582238BBB0895413059F428B37B
:1002740081E090E002C0880F991F6A95E2F7822B13
:1002840088BB089528B381E090E002C0880F991FCD
:100294006A95E2F78095822388BB0895413059F42A
:1002A40025B381E090E002C0880F991F6A95E2F7B8
:1002B400822B85BB089525B381E090E002C0880FAE
:1002C400991F6A95E2F78095822385BB0895413092
:1002D40059F422B381E090E002C0880F991F6A9517
:1002E400E2F7822B82BB089522B381E090E002C042
:1002F400880F991F6A95E2F78095822382BB08953F
:100304000F931F93082F10E0F801E154F109E43230
:10031400F10508F057C0EE58FF4F0C947E0249B324
:1003240081E090E09C01062E02C0220F331F0A9444
:10033400E2F7842F90E08223932302C09695879559
:100344006A95E2F7982F3EC046B381E090E09C01A5
:10035400062E02C0220F331F0A94E2F7842F90E086
:100364008223932302C0969587956A95E2F7982F86
:1003740029C043B381E090E09C01062E02C0220F05
:10038400331F0A94E2F7842F90E08223932302C060
:10039400969587956A95E2F7982F14C040B381E04B
:1003A40090E09C01062E02C0220F331F0A94E2F74C
:1003B400842F90E08223932302C0969587956A95B3
:0C03C400E2F7982F892F1F910F910895E8
:1003D00041E060E081E40E94A20041E061E081E44C
:1003E0000E94A20041E062E081E40E94A20041E09C
:1003F00063E081E40E94A20041E064E081E40E94A5
:10040000A20041E065E081E40E94A20041E066E0D4
:1004100081E40E94A20041E067E081E40E94A20022
:1004200067E084E40E94880267E084E40E948C0212
:100430002FEF89E698E1215080409040E1F700C01D
:10044000000067E084E40E94900266E084E40E9479
:10045000840266E084E40E9494028130D1F70E9415
:040460003202F7CF9E
:1004640040E050E060E070E081E490E00E9412011E
:1004740041E050E061E070E081E490E00E9412010C
:1004840040E050E062E070E081E490E00E941201FC
:1004940041E050E063E070E081E490E00E941201EA
:1004A40040E050E064E070E081E490E00E941201DA
:1004B40041E050E065E070E081E490E00E941201C8
:1004C40040E050E066E070E081E490E00E941201B8
:1004D40041E050E067E070E081E490E00E941201A6
:0204E400089579
:1004E600EC010E949C020E949B02CE010E949D028A
:0604F600CE010E949902F4
:0C04FC00EE0FFF1F0590F491E02D099415
:0805080040E00E94A2000895EA
:0805100041E00E94A2000895E1
:0805180041E00E941201089568
:0805200040E00E941201089561
:060528000E94820108950B
:04052E000C94000029
:040532000E94A00083
:02053600089526
:02053800089524
:02053A00089522
:00000001FF
