:100000000C949C000C944B070C944B070C944B07DE
:100010000C944B070C944B070C944B070C944B0718
:100020000C944B070C944B070C944B070C944B0708
:100030000C944B070C944B070C944B070C944B07F8
:100040000C944B070C944B070C944B070C944B07E8
:100050000C944B078A03A303BC03D503ED03ED0304
:10006000ED03ED03ED03ED03ED03ED03ED03ED0310
:10007000ED03ED03ED03ED03ED03ED03ED03ED0300
:10008000ED03ED03ED03ED03ED03ED03ED03ED03F0
:10009000ED03ED038A03A303BC03D503FA031304A2
:1000A0002C0445045D045D045D045D045D045D0491
:1000B0005D045D045D045D045D045D045D045D0438
:1000C0005D045D045D045D045D045D045D045D0428
:1000D0005D045D045D045D045D045D04FA031304C6
:1000E0002C0445046D0482049704AC04C004C004CD
:1000F000C004C004C004C004C004C004C004C004E0
:10010000C004C004C004C004C004C004C004C004CF
:10011000C004C004C004C004C004C004C004C004BF
:10012000C004C0046D0482049704AC040060006441
:100130008000640066000EA411241FBECFE5D8E045
:10014000DEBFCDBFECE2F1E041E017C0B591A59173
:1001500035912591059107FD0CC095918591EF0191
:10016000F92FE82F05900D92A217B307D9F7FE01DA
:1001700004C01D92A217B307E1F7E833F40731F783
:0C0180000E94F8000C941F07F894FFCFB9
:10018C005B44454255475D205541525420496E69A8
:10019C007469616C697A65642040393630300D0AB7
:1001AC00004F4B3A460D0A00730D0A004F4B3A4272
:1001BC000D0A004F4B3A500D0A004F4B3A530D0AA3
:1001CC00004F4B3A4E0D0A004F4B3A310D0A004F7F
:1001DC004B3A320D0A004F4B3A330D0A004F4B3A53
:0401EC004B0D0A00AD
:1001F000C0E0D0E006C041E06C2F81E40E947E03A5
:100200002196C830D105BCF363E084E40E94300736
:1002100064E084E40E94300760E083E40E943407D5
:1002200067E083E40E94340760E083E40E943807BB
:100230002FEF89E698E1215080409040E1F700C01F
:10024000000060E083E40E943C0760E875E280E023
:1002500090E00E9491066CE871E080E00E94ED065B
:100260000E944407863489F56DEA71E080E00E94BF
:10027000ED060E9403072FE788E391E021508040BC
:100280009040E1F700C0000063E084E40E9448076A
:10029000C82F64E084E40E944807C13099F481309B
:1002A00089F40E94D8052FE788E391E0215080402F
:1002B0009040E1F700C0000064EB71E080E00E9434
:1002C000ED06CECF0E945706DFCF8234D1F568EB22
:1002D00071E080E00E94ED060E9411072FE788E39D
:1002E00091E0215080409040E1F700C0000063E0C1
:1002F00084E40E944807C82F64E084E40E94480711
:10030000D82F65E084E40E94480766E084E40E94F8
:100310004807C13099F4D13089F40E94D8052FE7FD
:1003200088E391E0215080409040E1F700C0000058
:1003300064EB71E080E00E94ED0692CF0E94190606
:10034000D6CF803509F08CC06FEB71E080E00E9461
:10035000ED060E944407863489F56DEA71E080E07D
:100360000E94ED060E9403072FE789EA93E02150DF
:1003700080409040E1F700C0000063E084E40E9408
:100380004807C82F64E084E40E944807C13099F40C
:10039000813089F40E94D8052FE788E391E021504D
:1003A00080409040E1F700C0000064EB71E080E025
:1003B0000E94ED0655CF0E945706DFCF8234D1F55B
:1003C00068EB71E080E00E94ED060E9411072FE7C4
:1003D00089EA93E0215080409040E1F700C000009E
:1003E00063E084E40E944807C82F64E084E40E942C
:1003F0004807D82F65E084E40E94480766E084E45B
:100400000E944807C13099F4D13089F40E94D80580
:100410002FE788E391E0215080409040E1F700C051
:10042000000064EB71E080E00E94ED0619CF0E94AD
:100430001906D6CF833589F40E94D8052FE788E3C3
:1004400091E0215080409040E1F700C0000066EC50
:1004500071E080E00E94ED0603CF0E944E0579CF47
:100460008E3409F095C06DEC71E080E00E94ED06DD
:100470000E9444078634D1F56DEA71E080E00E9465
:10048000ED060E9403072FE788E391E021508040AA
:100490009040E1F700C0000001E010E001301105DC
:1004A00021F40E94030700E010E063E084E40E946E
:1004B0004807C82F64E084E40E944807C13099F4DB
:1004C000813089F40E94D8052FE788E391E021501C
:1004D00080409040E1F700C0000064EB71E080E0F4
:1004E0000E94ED06BDCE0E945706D8CF8234D1F5CA
:1004F00068EB71E080E00E94ED060E9411072FE793
:1005000088E391E0215080409040E1F700C0000076
:1005100063E084E40E944807C82F64E084E40E94FA
:100520004807D82F65E084E40E94480766E084E429
:100530000E944807C13099F4D13089F40E94D8054F
:100540002FE788E391E0215080409040E1F700C020
:10055000000064EB71E080E00E94ED0681CE0E9415
:100560001906D6CF833589F40E94D8052FE788E392
:1005700091E0215080409040E1F700C0000066EC1F
:1005800071E080E00E94ED066BCE0E94930570CF73
:10059000833541F466EC71E080E00E94ED060E9434
:1005A000D8055ECE8A3009F45BCE8D3009F458CE82
:1005B0009FEC980F933008F087C0813339F0823375
:1005C00041F0833351F0E12CF12C0BC0E12CF12CE4
:1005D00008C0EE24E394F12C04C06894EE24E1F802
:1005E000F12C813331F464ED71E080E00E94ED067E
:1005F0000DC0823331F46BED71E080E00E94ED06B6
:1006000005C062EE71E080E00E94ED060E941107D5
:100610002FEF83EF91E0215080409040E1F700C040
:10062000000000E010E063E084E40E944807C82F67
:1006300064E084E40E944807D82F65E084E40E94C7
:10064000480766E084E40E944807C130D1F5D13004
:10065000C1F50E151F0524F50E9411072FEF8DEE31
:1006600092E0215080409040E1F700C0000063E03C
:1006700084E40E944807C82F64E084E40E9448078D
:10068000C13059F4813049F40E9411078FE19EE492
:100690000197F1F700C00000EACF0F5F1F4FC3CFF3
:1006A0000E94D8059FE728E381E0915020408040D8
:1006B000E1F700C0000064EB71E080E00E94ED060D
:1006C000CFCD0E941906AFCF883509F0C9CD69EEAC
:1006D00071E080E00E94ED0667E083E40E94380745
:1006E0009FEF23ED80E3915020408040E1F700C070
:0C06F000000067E083E40E943C07B2CDEC
:1006FC0090E0FC01E154F109E432F10508F067C027
:10070C00E65DFF4F0C942A07413059F42AB381E07F
:10071C0090E002C0880F991F6A95E2F7822B8ABB82
:10072C0008952AB381E090E002C0880F991F6A9562
:10073C00E2F7809582238ABB0895413059F427B3A0
:10074C0081E090E002C0880F991F6A95E2F7822B36
:10075C0087BB089527B381E090E002C0880F991FF2
:10076C006A95E2F78095822387BB0895413059F44E
:10077C0024B381E090E002C0880F991F6A95E2F7DC
:10078C00822B84BB089524B381E090E002C0880FD3
:10079C00991F6A95E2F78095822384BB08954130B6
:1007AC0059F421B381E090E002C0880F991F6A953B
:1007BC00E2F7822B81BB089521B381E090E002C067
:1007CC00880F991F6A95E2F78095822381BB089563
:1007DC0090E0FC01E154F109E432F10508F067C046
:1007EC00E25BFF4F0C942A07413059F42BB381E0A4
:1007FC0090E002C0880F991F6A95E2F7822B8BBBA1
:10080C0008952BB381E090E002C0880F991F6A9580
:10081C00E2F7809582238BBB0895413059F428B3BD
:10082C0081E090E002C0880F991F6A95E2F7822B55
:10083C0088BB089528B381E090E002C0880F991F0F
:10084C006A95E2F78095822388BB0895413059F46C
:10085C0025B381E090E002C0880F991F6A95E2F7FA
:10086C00822B85BB089525B381E090E002C0880FF0
:10087C00991F6A95E2F78095822385BB08954130D4
:10088C0059F422B381E090E002C0880F991F6A9559
:10089C00E2F7822B82BB089522B381E090E002C084
:1008AC00880F991F6A95E2F78095822382BB089581
:1008BC000F931F93082F10E0F801E154F109E43273
:1008CC00F10508F057C0EE58FF4F0C942A0749B3B6
:1008DC0081E090E09C01062E02C0220F331F0A9487
:1008EC00E2F7842F90E08223932302C0969587959C
:1008FC006A95E2F7982F3EC046B381E090E09C01E8
:10090C00062E02C0220F331F0A94E2F7842F90E0C8
:10091C008223932302C0969587956A95E2F7982FC8
:10092C0029C043B381E090E09C01062E02C0220F47
:10093C00331F0A94E2F7842F90E08223932302C0A2
:10094C00969587956A95E2F7982F14C040B381E08D
:10095C0090E09C01062E02C0220F331F0A94E2F78E
:10096C00842F90E08223932302C0969587956A95F5
:0C097C00E2F7982F892F1F910F9108952A
:1009880040E050E060E070E081E490E00E94EE0317
:1009980041E050E061E070E081E490E00E94EE0305
:1009A80040E050E062E070E081E490E00E94EE03F5
:1009B80041E050E063E070E081E490E00E94EE03E3
:1009C80040E050E064E070E081E490E00E94EE03D3
:1009D80041E050E065E070E081E490E00E94EE03C1
:1009E80040E050E066E070E081E490E00E94EE03B1
:1009F80041E050E067E070E081E490E00E94EE039F
:0A0A0800809165000E94D506089554
:100A120041E050E060E070E081E490E00E94EE038B
:100A220040E050E061E070E081E490E00E94EE037B
:100A320041E050E062E070E081E490E00E94EE0369
:100A420040E050E063E070E081E490E00E94EE0359
:100A520041E050E064E070E081E490E00E94EE0347
:100A620040E050E065E070E081E490E00E94EE0337
:100A720041E050E066E070E081E490E00E94EE0325
:100A820040E050E067E070E081E490E00E94EE0315
:0A0A9200809165000E94D5060895CA
:100A9C0040E050E060E070E081E490E00E94EE0302
:100AAC0041E050E061E070E081E490E00E94EE03F0
:100ABC0040E050E062E070E081E490E00E94EE03E0
:100ACC0041E050E063E070E081E490E00E94EE03CE
:100ADC0041E050E064E070E081E490E00E94EE03BD
:100AEC0040E050E065E070E081E490E00E94EE03AD
:100AFC0041E050E066E070E081E490E00E94EE039B
:100B0C0040E050E067E070E081E490E00E94EE038A
:0A0B1C00809164000E94D506089540
:100B260041E050E060E070E081E490E00E94EE0376
:100B360040E050E061E070E081E490E00E94EE0366
:100B460041E050E062E070E081E490E00E94EE0354
:100B560040E050E063E070E081E490E00E94EE0344
:100B660040E050E064E070E081E490E00E94EE0333
:100B760041E050E065E070E081E490E00E94EE0321
:100B860040E050E066E070E081E490E00E94EE0311
:100B960041E050E067E070E081E490E00E94EE03FF
:0A0BA600809164000E94D5060895B6
:100BB00040E050E060E070E081E490E00E94EE03ED
:100BC00040E050E061E070E081E490E00E94EE03DC
:100BD00040E050E062E070E081E490E00E94EE03CB
:100BE00040E050E063E070E081E490E00E94EE03BA
:100BF00040E050E064E070E081E490E00E94EE03A9
:100C000040E050E065E070E081E490E00E94EE0397
:100C100040E050E066E070E081E490E00E94EE0386
:100C200040E050E067E070E081E490E00E94EE0375
:020C3000089525
:100C320065E084E40E9448078093630066E084E4F0
:100C42000E9448078093600090916300913029F4DC
:100C5200811103C00E944E0518C0911105C0813058
:100C620019F40E94930511C020916100213039F4DA
:100C720020916200213019F40E94D80506C091111A
:100C820004C0811102C00E94090580916100813077
:100C920039F480916200813031F080E090E0089573
:0C0CA20080E090E0089581E090E008956B
:100CAE0063E084E40E9448078093610064E084E47A
:100CBE000E9448078093620090916100913029F460
:100CCE00811103C00E94930514C0911105C081309B
:100CDE0019F40E944E050DC0913029F4813019F49B
:100CEE000E94D80506C0911104C0811102C00E9455
:100CFE00C40480916100813039F4809162008130AA
:100D0E0031F080E090E0089580E090E0089581E079
:040D1E0090E00895C4
:100D2200DC01CB01880F991FAA1FBB1F880F991FD7
:100D3200AA1FBB1F9C01AD01220F331F441F551F69
:100D420060E072E18AE790E00E94B3062150310927
:100D520030BD29B98BB182608BB988E18AB986E846
:040D620080BD0895B3
:100D6600A1E21A2EAA1BBB1BFD010DC0AA1FBB1FA9
:100D7600EE1FFF1FA217B307E407F50720F0A21B1B
:100D8600B30BE40BF50B661F771F881F991F1A9488
:100D960069F760957095809590959B01AC01BD01B2
:040DA600CF010895DC
:100DAA0097B3986097BB93B7906493BF93B79860D3
:100DBA0093BF93B7916093BF93B7946093BF93B770
:100DCA00906193BF93B7906293BF80958CBF08954B
:100DDA00CF92DF92EF926B01E82E06C09FEFC91AFD
:100DEA00D90AE90A0E944007F6018491E7FC80814A
:0C0DFA008111F4CFEF90DF90CF900895AE
:100E06000E94C4042FEF84E39CE021508040904070
:0C0E1600E1F700C000000E94D80508951C
:100E22000E9409052FEF84E39CE02150804090400E
:0C0E3200E1F700C000000E94D805089500
:100E3E00EC010E9450070E944F07CE010E945107FD
:060E4E00CE010E944D07D9
:0C0E5400EE0FFF1F0590F491E02D0994B3
:080E600040E00E947E030895AA
:080E680041E00E947E030895A1
:080E700041E00E94EE03089529
:080E780040E00E94EE03089522
:080E80005D9BFECF8CB90895C3
:080E88005F9BFECF8CB10895C1
:060E90000E945E040895BB
:040E96000C940000B8
:040E9A000E94C400EE
:020E9E000895B5
:020EA0000895B3
:020EA2000895B1
:010EA40096B7
:010EA5003715
:00000001FF
