:100000000C949A000C94A6050C94A6050C94A605D5
:100010000C94A6050C94A6050C94A6050C94A605B4
:100020000C94A6050C94A6050C94A6050C94A605A4
:100030000C94A6050C94A6050C94A6050C94A60594
:100040000C94A6050C94A6050C94A6050C94A60584
:100050000C94A605CF01E80101021A023202320215
:1000600032023202320232023202320232023202F0
:1000700032023202320232023202320232023202E0
:1000800032023202320232023202320232023202D0
:1000900032023202CF01E80101021A023F02580285
:1000A00071028A02A202A202A202A202A202A20279
:1000B000A202A202A202A202A202A202A202A20220
:1000C000A202A202A202A202A202A202A202A20210
:1000D000A202A202A202A202A202A2023F025802AD
:1000E00071028A02B202C702DC02F10205030503B3
:1000F00005030503050305030503050305030503C0
:1001000005030503050305030503050305030503AF
:10011000050305030503050305030503050305039F
:1001200005030503B202C702DC02F10200600061B0
:10013000000B5A0011241FBECFE5D8E0DEBFCDBFB3
:10014000ECE2F1E041E017C0B591A5913591259120
:10015000059107FD0CC095918591EF01F92FE82FCE
:1001600005900D92A217B307D9F7FE0104C01D92A6
:10017000A217B307E1F7E333F40731F70E94E80071
:080180000C947A05F894FFCFFE
:100188005B44454255475D205541525420496E69AC
:100198007469616C697A65642040393630300D0ABB
:1001A800004F4B3A460D0A00730D0A004F4B3A4276
:1001B8000D0A004F4B3A500D0A004F4B3A4E0D0AAC
:0801C800004F4B3A530D0A00F1
:1001D000C0E0D0E006C041E06C2F81E40E94C30182
:1001E0002196C830D105BCF365E084E40E948B05FC
:1001F00066E084E40E948B0560E083E40E948F0542
:1002000060E083E40E9493052FEF89E698E1215096
:1002100080409040E1F700C0000060E083E40E946D
:10022000970560E875E280E090E00E94DA0468E8F3
:1002300071E080E00E9464050E949F05863489F584
:1002400069EA71E080E00E9464050E9436052FE7AC
:1002500088E391E0215080409040E1F700C0000029
:1002600065E084E40E94A305C82F66E084E40E9450
:10027000A305C13099F4813089F40E941D042FE751
:1002800088E391E0215080409040E1F700C00000F9
:1002900060EB71E080E00E946405CECF0E945E04B6
:1002A000DFCF823489F564EB71E080E00E94640561
:1002B0000E944D052FE788E391E021508040904057
:1002C000E1F700C0000065E084E40E94A305C82FA8
:1002D00066E084E40E94A305C13099F4813089F47A
:1002E0000E941D042FE788E391E021508040904058
:1002F000E1F700C0000060EB71E080E00E9464055F
:100300009BCF0E949C04DFCF8035C1F46BEB71E082
:1003100080E00E9464050E949F05833561F40E947D
:100320001D042FE788E391E0215080409040E1F7E1
:1003300000C0000081CF0E949303EDCF8E34C1F442
:1003400062EC71E080E00E9464050E949F058335A5
:1003500061F40E941D042FE788E391E02150804062
:100360009040E1F700C0000067CF0E94D803EDCFB6
:10037000833509F061CF69EC71E080E00E9464058B
:060380000E941D0459CF8C
:1003860090E0FC01E154F109E432F10508F067C0A0
:10039600E65DFF4F0C948505413059F42AB381E0A0
:1003A60090E002C0880F991F6A95E2F7822B8ABBFC
:1003B60008952AB381E090E002C0880F991F6A95DC
:1003C600E2F7809582238ABB0895413059F427B31A
:1003D60081E090E002C0880F991F6A95E2F7822BB0
:1003E60087BB089527B381E090E002C0880F991F6C
:1003F6006A95E2F78095822387BB0895413059F4C8
:1004060024B381E090E002C0880F991F6A95E2F755
:10041600822B84BB089524B381E090E002C0880F4C
:10042600991F6A95E2F78095822384BB089541302F
:1004360059F421B381E090E002C0880F991F6A95B4
:10044600E2F7822B81BB089521B381E090E002C0E0
:10045600880F991F6A95E2F78095822381BB0895DC
:1004660090E0FC01E154F109E432F10508F067C0BF
:10047600E25BFF4F0C948505413059F42BB381E0C4
:1004860090E002C0880F991F6A95E2F7822B8BBB1A
:1004960008952BB381E090E002C0880F991F6A95FA
:1004A600E2F7809582238BBB0895413059F428B337
:1004B60081E090E002C0880F991F6A95E2F7822BCF
:1004C60088BB089528B381E090E002C0880F991F89
:1004D6006A95E2F78095822388BB0895413059F4E6
:1004E60025B381E090E002C0880F991F6A95E2F774
:1004F600822B85BB089525B381E090E002C0880F6A
:10050600991F6A95E2F78095822385BB089541304D
:1005160059F422B381E090E002C0880F991F6A95D2
:10052600E2F7822B82BB089522B381E090E002C0FD
:10053600880F991F6A95E2F78095822382BB0895FA
:100546000F931F93082F10E0F801E154F109E432EC
:10055600F10508F057C0EE58FF4F0C94850549B3D6
:1005660081E090E09C01062E02C0220F331F0A9400
:10057600E2F7842F90E08223932302C09695879515
:100586006A95E2F7982F3EC046B381E090E09C0161
:10059600062E02C0220F331F0A94E2F7842F90E042
:1005A6008223932302C0969587956A95E2F7982F42
:1005B60029C043B381E090E09C01062E02C0220FC1
:1005C600331F0A94E2F7842F90E08223932302C01C
:1005D600969587956A95E2F7982F14C040B381E007
:1005E60090E09C01062E02C0220F331F0A94E2F708
:1005F600842F90E08223932302C0969587956A956F
:0C060600E2F7982F892F1F910F910895A3
:1006120040E050E060E070E081E490E00E9433024C
:1006220041E050E061E070E081E490E00E9433023A
:1006320040E050E062E070E081E490E00E9433022A
:1006420041E050E063E070E081E490E00E94330218
:1006520040E050E064E070E081E490E00E94330208
:1006620041E050E065E070E081E490E00E943302F6
:1006720040E050E066E070E081E490E00E943302E6
:1006820041E050E067E070E081E490E00E943302D4
:0A069200809160000E941E0508958B
:10069C0041E050E060E070E081E490E00E943302C1
:1006AC0040E050E061E070E081E490E00E943302B1
:1006BC0041E050E062E070E081E490E00E9433029F
:1006CC0040E050E063E070E081E490E00E9433028F
:1006DC0041E050E064E070E081E490E00E9433027D
:1006EC0040E050E065E070E081E490E00E9433026D
:1006FC0041E050E066E070E081E490E00E9433025B
:10070C0040E050E067E070E081E490E00E9433024A
:0A071C00809160000E941E05089500
:1007260040E050E060E070E081E490E00E94330237
:1007360041E050E061E070E081E490E00E94330225
:1007460040E050E062E070E081E490E00E94330215
:1007560041E050E063E070E081E490E00E94330203
:1007660041E050E064E070E081E490E00E943302F2
:1007760040E050E065E070E081E490E00E943302E2
:1007860041E050E066E070E081E490E00E943302D0
:1007960040E050E067E070E081E490E00E943302C0
:0A07A600809160000E941E05089576
:1007B00041E050E060E070E081E490E00E943302AC
:1007C00040E050E061E070E081E490E00E9433029C
:1007D00041E050E062E070E081E490E00E9433028A
:1007E00040E050E063E070E081E490E00E9433027A
:1007F00040E050E064E070E081E490E00E94330269
:1008000041E050E065E070E081E490E00E94330256
:1008100040E050E066E070E081E490E00E94330246
:1008200041E050E067E070E081E490E00E94330234
:0A083000809160000E941E050895EB
:10083A0040E050E060E070E081E490E00E94330222
:10084A0040E050E061E070E081E490E00E94330211
:10085A0040E050E062E070E081E490E00E94330200
:10086A0040E050E063E070E081E490E00E943302EF
:10087A0040E050E064E070E081E490E00E943302DE
:10088A0040E050E065E070E081E490E00E943302CD
:10089A0040E050E066E070E081E490E00E943302BC
:1008AA0040E050E067E070E081E490E00E943302AB
:0208BA0008959F
:1008BC00CF93DF9365E084E40E948B0566E084E4CB
:1008CC000E948B0565E084E40E94A305C82F66E0B6
:1008DC0084E40E94A305D82FC13029F4811103C0F0
:1008EC000E94D80314C0C11105C0D13019F40E9464
:1008FC0093030DC0C13029F4D13019F40E941D04AA
:10090C0006C0C11104C0D11102C00E940903C1303C
:10091C0029F4D13031F080E090E005C080E090E027
:0C092C0002C081E090E0DF91CF910895BF
:10093800CF93DF9365E084E40E948B0566E084E44E
:100948000E948B0565E084E40E94A305C82F66E039
:1009580084E40E94A305D82FC11105C0813019F481
:100968000E94D80314C0C13029F4D11103C00E94D9
:1009780093030DC0C13029F4D13019F40E941D042D
:1009880006C0C11104C0D11102C00E944E03C1307B
:1009980029F4D13031F080E090E005C080E090E0AB
:0C09A80002C081E090E0DF91CF91089543
:1009B400DC01CB01880F991FAA1FBB1F880F991F49
:1009C400AA1FBB1F9C01AD01220F331F441F551FDB
:1009D40060E072E18AE790E00E94FC042150310952
:1009E40030BD29B98BB182608BB988E18AB986E8B8
:0409F40080BD089525
:1009F800A1E21A2EAA1BBB1BFD010DC0AA1FBB1F1B
:100A0800EE1FFF1FA217B307E407F50720F0A21B8C
:100A1800B30BE40BF50B661F771F881F991F1A94F9
:100A280069F760957095809590959B01AC01BD0123
:040A3800CF0108954D
:100A3C0097B3986097BB93B7906493BF93B7986044
:100A4C0093BF93B7916093BF93B7946093BF93B7E1
:100A5C00906193BF93B7906293BF80958CBF0895BC
:100A6C000E9409032FEF84E39CE0215080409040CA
:100A7C00E1F700C000000E941D042FE78AE196E018
:0E0A8C00215080409040E1F700C00000089526
:100A9A000E944E032FE78AE196E021508040904061
:100AAA00E1F700C000000E941D042FE78AE196E0EA
:0E0ABA00215080409040E1F700C000000895F8
:100AC800CF92DF92EF926B01E82E06C09FEFC91A12
:100AD800D90AE90A0E949B05F6018491E7FC808106
:0C0AE8008111F4CFEF90DF90CF900895C3
:100AF400EC010E94AB050E94AA05CE010E94AC0540
:060B0400CE010E94A805CD
:0C0B0A00EE0FFF1F0590F491E02D099400
:080B160040E00E94C3010895B4
:080B1E0041E00E94C3010895AB
:080B260041E00E943302089532
:080B2E0040E00E94330208952B
:080B36005D9BFECF8CB9089510
:080B3E005F9BFECF8CB108950E
:060B46000E94A3020895C5
:040B4C000C94000005
:040B50000E94C2003D
:020B5400089502
:020B5600089500
:020B58000895FE
:010B5A004B4F
:00000001FF
