:100000000C949C000C9457070C9457070C945707BA
:100010000C9457070C9457070C9457070C945707E8
:100020000C9457070C9457070C9457070C945707D8
:100030000C9457070C9457070C9457070C945707C8
:100040000C9457070C9457070C9457070C945707B8
:100050000C9457078A03A303BC03D503ED03ED03F8
:10006000ED03ED03ED03ED03ED03ED03ED03ED0310
:10007000ED03ED03ED03ED03ED03ED03ED03ED0300
:10008000ED03ED03ED03ED03ED03ED03ED03ED03F0
:10009000ED03ED038A03A303BC03D503FA031304A2
:1000A0002C0445045D045D045D045D045D045D0491
:1000B0005D045D045D045D045D045D045D045D0438
:1000C0005D045D045D045D045D045D045D045D0428
:1000D0005D045D045D045D045D045D04FA031304C6
:1000E0002C0445046D0482049704AC04C004C004CD
:1000F000C004C004C004C004C004C004C004C004E0
:10010000C004C004C004C004C004C004C004C004CF
:10011000C004C004C004C004C004C004C004C004BF
:10012000C004C0046D0482049704AC040060006441
:100130008000640066000EBC11241FBECFE5D8E02D
:10014000DEBFCDBFECE2F1E041E017C0B591A59173
:1001500035912591059107FD0CC095918591EF0191
:10016000F92FE82F05900D92A217B307D9F7FE01DA
:1001700004C01D92A217B307E1F7E833F40731F783
:0C0180000E94F8000C942B07F894FFCFAD
:10018C005B44454255475D205541525420496E69A8
:10019C007469616C697A65642040393630300D0AB7
:1001AC00004F4B3A460D0A00730D0A004F4B3A4272
:1001BC000D0A004F4B3A500D0A004F4B3A530D0AA3
:1001CC00004F4B3A4E0D0A004F4B3A310D0A004F7F
:1001DC004B3A320D0A004F4B3A330D0A004F4B3A53
:0401EC004B0D0A00AD
:1001F000C0E0D0E006C041E06C2F81E40E947E03A5
:100200002196C830D105BCF363E084E40E943C072A
:1002100064E084E40E943C0760E083E40E944007BD
:1002200067E083E40E94400760E083E40E944407A3
:100230002FEF89E698E1215080409040E1F700C01F
:10024000000060E083E40E94480760E875E280E017
:1002500090E00E949D066CE871E080E00E94F90643
:100260000E945007863489F56DEA71E080E00E94B3
:10027000F9060E940F072FE788E391E021508040A4
:100280009040E1F700C0000063E084E40E9454075E
:10029000C82F64E084E40E945407C13099F481308F
:1002A00089F40E9422062FE788E391E021508040E4
:1002B0009040E1F700C0000064EB71E080E00E9434
:1002C000F906CECF0E946306DFCF8234D1F568EB0A
:1002D00071E080E00E94F9060E941D072FE788E385
:1002E00091E0215080409040E1F700C0000063E0C1
:1002F00084E40E945407C82F64E084E40E945407F9
:10030000D82F65E084E40E94540766E084E40E94EC
:100310005407C13099F4D13089F40E9422062FE7A6
:1003200088E391E0215080409040E1F700C0000058
:1003300064EB71E080E00E94F90692CF0E94C40451
:10034000D6CF803509F08CC06FEB71E080E00E9461
:10035000F9060E945007863489F56DEA71E080E065
:100360000E94F9060E940F072FE789EA93E02150C7
:1003700080409040E1F700C0000063E084E40E9408
:100380005407C82F64E084E40E945407C13099F4F4
:10039000813089F40E9422062FE788E391E0215002
:1003A00080409040E1F700C0000064EB71E080E025
:1003B0000E94F90655CF0E946306DFCF8234D1F543
:1003C00068EB71E080E00E94F9060E941D072FE7AC
:1003D00089EA93E0215080409040E1F700C000009E
:1003E00063E084E40E945407C82F64E084E40E9420
:1003F0005407D82F65E084E40E94540766E084E443
:100400000E945407C13099F4D13089F40E94220629
:100410002FE788E391E0215080409040E1F700C051
:10042000000064EB71E080E00E94F90619CF0E94A1
:10043000C404D6CF833589F40E9422062FE788E3CF
:1004400091E0215080409040E1F700C0000066EC50
:1004500071E080E00E94F90603CF0E94980579CFF1
:100460008E3409F095C06DEC71E080E00E94F906D1
:100470000E9450078634D1F56DEA71E080E00E9459
:10048000F9060E940F072FE788E391E02150804092
:100490009040E1F700C0000001E010E001301105DC
:1004A00021F40E940F0700E010E063E084E40E9462
:1004B0005407C82F64E084E40E945407C13099F4C3
:1004C000813089F40E9422062FE788E391E02150D1
:1004D00080409040E1F700C0000064EB71E080E0F4
:1004E0000E94F906BDCE0E946306D8CF8234D1F5B2
:1004F00068EB71E080E00E94F9060E941D072FE77B
:1005000088E391E0215080409040E1F700C0000076
:1005100063E084E40E945407C82F64E084E40E94EE
:100520005407D82F65E084E40E94540766E084E411
:100530000E945407C13099F4D13089F40E942206F8
:100540002FE788E391E0215080409040E1F700C020
:10055000000064EB71E080E00E94F90681CE0E9409
:10056000C404D6CF833589F40E9422062FE788E39E
:1005700091E0215080409040E1F700C0000066EC1F
:1005800071E080E00E94F9066BCE0E94DD0570CF1D
:10059000833541F466EC71E080E00E94F9060E9428
:1005A00022065ECE8A3009F45BCE8D3009F458CE37
:1005B0009FEC980F933008F087C0813339F0823375
:1005C00041F0833351F0E12CF12C0BC0E12CF12CE4
:1005D00008C0EE24E394F12C04C06894EE24E1F802
:1005E000F12C813331F464ED71E080E00E94F90672
:1005F0000DC0823331F46BED71E080E00E94F906AA
:1006000005C062EE71E080E00E94F9060E941D07BD
:100610002FEF83EF91E0215080409040E1F700C040
:10062000000000E010E063E084E40E945407C82F5B
:1006300064E084E40E945407D82F65E084E40E94BB
:10064000540766E084E40E945407C130D1F5D130EC
:10065000C1F50E151F0524F50E941D072FEF8DEE25
:1006600092E0215080409040E1F700C0000063E03C
:1006700084E40E945407C82F64E084E40E94540775
:10068000C13059F4813049F40E941D078FE19EE486
:100690000197F1F700C00000EACF0F5F1F4FC3CFF3
:1006A0000E9422069FE728E381E09150204080408D
:1006B000E1F700C0000064EB71E080E00E94F90601
:1006C000CFCD0E94C404AFCF883509F0C9CD69EE03
:1006D00071E080E00E94F90667E083E40E9444072D
:1006E0009FEF23ED80E3915020408040E1F700C070
:0C06F000000067E083E40E944807B2CDE0
:1006FC0090E0FC01E154F109E432F10508F067C027
:10070C00E65DFF4F0C943607413059F42AB381E073
:10071C0090E002C0880F991F6A95E2F7822B8ABB82
:10072C0008952AB381E090E002C0880F991F6A9562
:10073C00E2F7809582238ABB0895413059F427B3A0
:10074C0081E090E002C0880F991F6A95E2F7822B36
:10075C0087BB089527B381E090E002C0880F991FF2
:10076C006A95E2F78095822387BB0895413059F44E
:10077C0024B381E090E002C0880F991F6A95E2F7DC
:10078C00822B84BB089524B381E090E002C0880FD3
:10079C00991F6A95E2F78095822384BB08954130B6
:1007AC0059F421B381E090E002C0880F991F6A953B
:1007BC00E2F7822B81BB089521B381E090E002C067
:1007CC00880F991F6A95E2F78095822381BB089563
:1007DC0090E0FC01E154F109E432F10508F067C046
:1007EC00E25BFF4F0C943607413059F42BB381E098
:1007FC0090E002C0880F991F6A95E2F7822B8BBBA1
:10080C0008952BB381E090E002C0880F991F6A9580
:10081C00E2F7809582238BBB0895413059F428B3BD
:10082C0081E090E002C0880F991F6A95E2F7822B55
:10083C0088BB089528B381E090E002C0880F991F0F
:10084C006A95E2F78095822388BB0895413059F46C
:10085C0025B381E090E002C0880F991F6A95E2F7FA
:10086C00822B85BB089525B381E090E002C0880FF0
:10087C00991F6A95E2F78095822385BB08954130D4
:10088C0059F422B381E090E002C0880F991F6A9559
:10089C00E2F7822B82BB089522B381E090E002C084
:1008AC00880F991F6A95E2F78095822382BB089581
:1008BC000F931F93082F10E0F801E154F109E43273
:1008CC00F10508F057C0EE58FF4F0C94360749B3AA
:1008DC0081E090E09C01062E02C0220F331F0A9487
:1008EC00E2F7842F90E08223932302C0969587959C
:1008FC006A95E2F7982F3EC046B381E090E09C01E8
:10090C00062E02C0220F331F0A94E2F7842F90E0C8
:10091C008223932302C0969587956A95E2F7982FC8
:10092C0029C043B381E090E09C01062E02C0220F47
:10093C00331F0A94E2F7842F90E08223932302C0A2
:10094C00969587956A95E2F7982F14C040B381E08D
:10095C0090E09C01062E02C0220F331F0A94E2F78E
:10096C00842F90E08223932302C0969587956A95F5
:0C097C00E2F7982F892F1F910F9108952A
:1009880063E084E40E9454078093610064E084E497
:100998000E9454078093620065E084E40E94540733
:1009A8008093630066E084E40E94540780936000AB
:1009B80090916100913039F490916200913019F46E
:1009C8000E94220616C090916300913029F481118B
:1009D80003C00E94DD050DC0911105C0813019F4D6
:1009E8000E94980506C0911104C0811102C00E949E
:1009F800530580916300813039F480916000813023
:100A080031F080E090E0089580E090E0089581E082
:040A180090E00895CD
:100A1C0040E050E060E070E081E490E00E94EE0382
:100A2C0041E050E061E070E081E490E00E94EE0370
:100A3C0040E050E062E070E081E490E00E94EE0360
:100A4C0041E050E063E070E081E490E00E94EE034E
:100A5C0040E050E064E070E081E490E00E94EE033E
:100A6C0041E050E065E070E081E490E00E94EE032C
:100A7C0040E050E066E070E081E490E00E94EE031C
:100A8C0041E050E067E070E081E490E00E94EE030A
:0A0A9C00809165000E94E1060895B4
:100AA60041E050E060E070E081E490E00E94EE03F7
:100AB60040E050E061E070E081E490E00E94EE03E7
:100AC60041E050E062E070E081E490E00E94EE03D5
:100AD60040E050E063E070E081E490E00E94EE03C5
:100AE60041E050E064E070E081E490E00E94EE03B3
:100AF60040E050E065E070E081E490E00E94EE03A3
:100B060041E050E066E070E081E490E00E94EE0390
:100B160040E050E067E070E081E490E00E94EE0380
:0A0B2600809165000E94E106089529
:100B300040E050E060E070E081E490E00E94EE036D
:100B400041E050E061E070E081E490E00E94EE035B
:100B500040E050E062E070E081E490E00E94EE034B
:100B600041E050E063E070E081E490E00E94EE0339
:100B700041E050E064E070E081E490E00E94EE0328
:100B800040E050E065E070E081E490E00E94EE0318
:100B900041E050E066E070E081E490E00E94EE0306
:100BA00040E050E067E070E081E490E00E94EE03F6
:0A0BB000809164000E94E1060895A0
:100BBA0041E050E060E070E081E490E00E94EE03E2
:100BCA0040E050E061E070E081E490E00E94EE03D2
:100BDA0041E050E062E070E081E490E00E94EE03C0
:100BEA0040E050E063E070E081E490E00E94EE03B0
:100BFA0040E050E064E070E081E490E00E94EE039F
:100C0A0041E050E065E070E081E490E00E94EE038C
:100C1A0040E050E066E070E081E490E00E94EE037C
:100C2A0041E050E067E070E081E490E00E94EE036A
:0A0C3A00809164000E94E106089515
:100C440040E050E060E070E081E490E00E94EE0358
:100C540040E050E061E070E081E490E00E94EE0347
:100C640040E050E062E070E081E490E00E94EE0336
:100C740040E050E063E070E081E490E00E94EE0325
:100C840040E050E064E070E081E490E00E94EE0314
:100C940040E050E065E070E081E490E00E94EE0303
:100CA40040E050E066E070E081E490E00E94EE03F2
:100CB40040E050E067E070E081E490E00E94EE03E1
:020CC400089591
:100CC60063E084E40E9454078093610064E084E456
:100CD6000E9454078093620090916100913029F43C
:100CE600811103C00E94DD0514C0911105C0813039
:100CF60019F40E9498050DC0913029F4813019F439
:100D06000E94220606C0911104C0811102C00E94F1
:100D16000E0580916100813039F480916200813046
:100D260031F080E090E0089580E090E0089581E061
:040D360090E00895AC
:100D3A00DC01CB01880F991FAA1FBB1F880F991FBF
:100D4A00AA1FBB1F9C01AD01220F331F441F551F51
:100D5A0060E072E18AE790E00E94BF062150310903
:100D6A0030BD29B98BB182608BB988E18AB986E82E
:040D7A0080BD08959B
:100D7E00A1E21A2EAA1BBB1BFD010DC0AA1FBB1F91
:100D8E00EE1FFF1FA217B307E407F50720F0A21B03
:100D9E00B30BE40BF50B661F771F881F991F1A9470
:100DAE0069F760957095809590959B01AC01BD019A
:040DBE00CF010895C4
:100DC20097B3986097BB93B7906493BF93B79860BB
:100DD20093BF93B7916093BF93B7946093BF93B758
:100DE200906193BF93B7906293BF80958CBF089533
:100DF200CF92DF92EF926B01E82E06C09FEFC91AE5
:100E0200D90AE90A0E944C07F6018491E7FC808125
:0C0E12008111F4CFEF90DF90CF90089595
:100E1E000E940E052FEF84E39CE02150804090400D
:0C0E2E00E1F700C000000E9422060895B9
:100E3A000E9453052FEF84E39CE0215080409040AC
:0C0E4A00E1F700C000000E94220608959D
:100E5600EC010E945C070E945B07CE010E945D07C1
:060E6600CE010E945907B5
:0C0E6C00EE0FFF1F0590F491E02D09949B
:080E780040E00E947E03089592
:080E800041E00E947E03089589
:080E880041E00E94EE03089511
:080E900040E00E94EE0308950A
:080E98005D9BFECF8CB90895AB
:080EA0005F9BFECF8CB10895A9
:060EA8000E945E040895A3
:040EAE000C940000A0
:040EB2000E94C400D6
:020EB60008959D
:020EB80008959B
:020EBA00089599
:010EBC00969F
:010EBD0037FD
:00000001FF
