:100000000C9472000C940C030C940C030C940C03D1
:100010000C940C030C940C030C940C030C940C0324
:100020000C940C030C940C030C940C030C940C0314
:100030000C940C030C940C030C940C030C940C0304
:100040000C940C030C940C030C940C030C940C03F4
:100050000C940C038A01A301BC01D501ED01ED0153
:10006000ED01ED01ED01ED01ED01ED01ED01ED0120
:10007000ED01ED01ED01ED01ED01ED01ED01ED0110
:10008000ED01ED01ED01ED01ED01ED01ED01ED0100
:10009000ED01ED018A01A301BC01D501FA011302B2
:1000A0002C0245025D025D025D025D025D025D02A1
:1000B0005D025D025D025D025D025D025D025D0248
:1000C0005D025D025D025D025D025D025D025D0238
:1000D0005D025D025D025D025D025D02FA011302D6
:1000E0002C02450211241FBECFE5D8E0DEBFCDBFF4
:1000F000E4EEF0E040E017C0B591A591359125916F
:10010000059107FD0CC095918591EF01F92FE82F1E
:1001100005900D92A217B307D9F7FE0104C01D92F6
:10012000A217B307E1F7E43EF40731F70E945E023D
:080130000C94E702F894FFCFE4
:100138005B52585D2052617720427974653A2027D6
:1001480025632720284865783A20307825303258AA
:100158002C204465633A202564290D0A005B444538
:100168004255475D204475706C696361746520630E
:100178006F6D6D616E642069676E6F7265642C20A7
:100188006D6F746F7220737461746520756E636827
:10019800616E6765640D0A003C41434B3E0D0A00E1
:1001A8005B53544154455D205570646174696E67B2
:1001B800206C6173745F636D642066726F6D2027B5
:1001C80025632720746F20272563270D0A005B44C9
:1001D800454255475D20436F6D6D616E643A204618
:1001E8004F52574152440D0A005B44454255475D02
:1001F80020436F6D6D616E643A204241434B574115
:1002080052440D0A005B44454255475D20436F6DDB
:100218006D616E643A204C4546540D0A005B4445B6
:100228004255475D20436F6D6D616E643A205249B7
:100238004748540D0A005B44454255475D20436FCB
:100248006D6D616E643A2053544F500D0A005B4443
:10025800454255475D20436F6D6D616E643A205489
:100268004553540D0A005B4552524F525D20496E6A
:1002780076616C696420636F6D6D616E640D0A0050
:100288003C4552523E0D0A005B44454255475D20AD
:100298005541525420496E697469616C697A656484
:1002A8002040393630300D0A0041636B2046205219
:1002B800656365697665640041636B20502052650B
:1002C8006365697665640041636B204E20526563FF
:1002D80065697665640041636B20422052656365F9
:1002E800697665640041636B2053205265636569D4
:0402F80076656400C3
:1002FC0090E0FC01E154F109E432F10508F067C02B
:10030C00E65DFF4F0C94F202413059F42AB381E0C0
:10031C0090E002C0880F991F6A95E2F7822B8ABB86
:10032C0008952AB381E090E002C0880F991F6A9566
:10033C00E2F7809582238ABB0895413059F427B3A4
:10034C0081E090E002C0880F991F6A95E2F7822B3A
:10035C0087BB089527B381E090E002C0880F991FF6
:10036C006A95E2F78095822387BB0895413059F452
:10037C0024B381E090E002C0880F991F6A95E2F7E0
:10038C00822B84BB089524B381E090E002C0880FD7
:10039C00991F6A95E2F78095822384BB08954130BA
:1003AC0059F421B381E090E002C0880F991F6A953F
:1003BC00E2F7822B81BB089521B381E090E002C06B
:1003CC00880F991F6A95E2F78095822381BB089567
:1003DC0090E0FC01E154F109E432F10508F067C04A
:1003EC00E25BFF4F0C94F202413059F42BB381E0E5
:1003FC0090E002C0880F991F6A95E2F7822B8BBBA5
:10040C0008952BB381E090E002C0880F991F6A9584
:10041C00E2F7809582238BBB0895413059F428B3C1
:10042C0081E090E002C0880F991F6A95E2F7822B59
:10043C0088BB089528B381E090E002C0880F991F13
:10044C006A95E2F78095822388BB0895413059F470
:10045C0025B381E090E002C0880F991F6A95E2F7FE
:10046C00822B85BB089525B381E090E002C0880FF4
:10047C00991F6A95E2F78095822385BB08954130D8
:10048C0059F422B381E090E002C0880F991F6A955D
:10049C00E2F7822B82BB089522B381E090E002C088
:1004AC00880F991F6A95E2F78095822382BB089585
:1004BC00C0E0D0E006C041E06C2F81E40E947E01D8
:1004CC002196C830D105BCF360E083E40E94F802A9
:1004DC0060E083E40E94FC022FEF89E698E1215052
:1004EC0080409040E1F700C0000060E083E40E948F
:1004FC00000360E875E280E090E00E948D0260E904
:0E050C0072E080E00E94D1020E940803FDCF41
:10051A00DC01CB01880F991FAA1FBB1F880F991FE7
:10052A00AA1FBB1F9C01AD01220F331F441F551F79
:10053A0060E072E18AE790E00E94AF02215031093F
:10054A0030BD29B98BB182608BB988E18AB986E856
:04055A0080BD0895C3
:10055E00A1E21A2EAA1BBB1BFD010DC0AA1FBB1FB9
:10056E00EE1FFF1FA217B307E407F50720F0A21B2B
:10057E00B30BE40BF50B661F771F881F991F1A9498
:10058E0069F760957095809590959B01AC01BD01C2
:04059E00CF010895EC
:1005A200CF92DF92EF926B01E82E06C09FEFC91A3D
:1005B200D90AE90A0E940403F6018491E7FC8081CA
:0C05C2008111F4CFEF90DF90CF900895EE
:1005CE00EC010E9411030E941003CE010E9412033F
:0605DE00CE010E940E0395
:0C05E400EE0FFF1F0590F491E02D09942C
:0805F00041E00E947E01089524
:0805F80041E00E94EE010895AC
:0806000040E00E94EE010895A4
:080608005D9BFECF8CB9089543
:080610005F9BFECF8CB1089541
:040618000C9400003E
:04061C000E949A009E
:0206200008953B
:02062200089539
:02062400089537
:00000001FF
