:100000000C94A0000C943A080C943A080C943A080A
:100010000C943A080C943A080C943A080C943A0858
:100020000C943A080C943A080C943A080C943A0848
:100030000C943A080C943A080C943A080C943A0838
:100040000C943A080C943A080C943A080C943A0828
:100050000C943A08C603DF03F803110429042904A9
:100060002904290429042904290429042904290428
:100070002904290429042904290429042904290418
:100080002904290429042904290429042904290408
:1000900029042904C603DF03F803110436044F04BE
:1000A00068048104990499049904990499049904B1
:1000B0009904990499049904990499049904990458
:1000C0009904990499049904990499049904990448
:1000D00099049904990499049904990436044F04E5
:1000E00068048104A904BE04D304E804FC04FC04ED
:1000F000FC04FC04FC04FC04FC04FC04FC04FC0400
:10010000FC04FC04FC04FC04FC04FC04FC04FC04EF
:10011000FC04FC04FC04FC04FC04FC04FC04FC04DF
:10012000FC04FC04A904BE04D304E80400600064D9
:1001300080006400650001FF006500660010820019
:1001400011241FBECFE5D8E0DEBFCDBFECE2F1E069
:1001500041E017C0B591A59135912591059107FD15
:100160000CC095918591EF01F92FE82F05900D9224
:10017000A217B307D9F7FE0104C01D92A217B30757
:10018000E1F7EF33F40731F70E9400010C940E08F9
:04019000F894FFCF11
:100194005B44454255475D205541525420496E69A0
:1001A4007469616C697A65642040393630300D0AAF
:1001B400004F4B3A460D0A00730D0A004F4B3A426A
:1001C4000D0A004F4B3A500D0A004F4B3A530D0A9B
:1001D400004F4B3A4E0D0A004F4B3A310D0A004F77
:1001E4004B3A320D0A004F4B3A330D0A004F4B3A4B
:0B01F4004B0D0A004F4B3A4F0D0A0064
:0101FF00C837
:10020000C0E0D0E006C041E06C2F81E40E94BA0358
:100210002196C830D105BCF363E084E40E941F0836
:1002200064E084E40E941F0860E083E40E942308E5
:1002300067E083E40E94230860E083E40E942708CB
:100240002FEF89E698E1215080409040E1F700C00F
:10025000000060E083E40E942B0860E875E280E023
:1002600090E00E949C0764E971E080E00E94F8073A
:100270000E9433088634A9F565EB71E080E00E94A6
:10028000F8070E940005892BE1F30E94A6062FE7DC
:1002900088E391E0215080409040E1F700C00000E9
:1002A00063E084E40E943708C82F64E084E40E947D
:1002B0003708C13099F4813089F40E94A6062FE7EF
:1002C00088E391E0215080409040E1F700C00000B9
:1002D0006CEB71E080E00E94F807CACF0E9428070B
:1002E000DFCF8234F1F560EC71E080E00E94F80726
:1002F0000E944B05892BE1F30E94A6062FE788E3B5
:1003000091E0215080409040E1F700C0000063E0A0
:1003100084E40E943708C82F64E084E40E94370810
:10032000D82F65E084E40E94370866E084E40E94E8
:100330003708C13099F4D13089F40E94A6062FE71E
:1003400088E391E0215080409040E1F700C0000038
:100350006CEB71E080E00E94F8078ACF0E94EA0609
:10036000D6CF803509F094C067EC71E080E00E9440
:10037000F8070E9433088634A9F565EB71E080E048
:100380000E94F8070E940005892BE1F30E94A6064F
:100390002FE788E391E0215080409040E1F700C0D2
:1003A000000063E084E40E943708C82F64E084E41E
:1003B0000E943708C13099F4813089F40E94A60662
:1003C0002FE788E391E0215080409040E1F700C0A2
:1003D00000006CEB71E080E00E94F80749CF0E94BA
:1003E0002807DFCF8234F1F560EC71E080E00E94F5
:1003F000F8070E944B05892BE1F30E94A6062FE720
:1004000088E391E0215080409040E1F700C0000077
:1004100063E084E40E943708C82F64E084E40E940B
:100420003708D82F65E084E40E94370866E084E44A
:100430000E943708C13099F4D13089F40E94A60691
:100440002FE788E391E0215080409040E1F700C021
:1004500000006CEB71E080E00E94F80709CF0E9479
:10046000EA06D6CF833589F40E94A6062FE788E3F3
:1004700091E0215080409040E1F700C000006EEC18
:1004800071E080E00E94F807F3CE0E941C0671CF55
:100490008E3409F094C065ED71E080E00E94F807A9
:1004A0000E9433088634A9F565EB71E080E00E9474
:1004B000F8070E940005892BE1F30E94A6062FE7AA
:1004C00088E391E0215080409040E1F700C00000B7
:1004D00063E084E40E943708C82F64E084E40E944B
:1004E0003708C13099F4813089F40E94A6062FE7BD
:1004F00088E391E0215080409040E1F700C0000087
:100500006CEB71E080E00E94F807B2CE0E942807F1
:10051000DFCF8234F1F560EC71E080E00E94F807F3
:100520000E944B05892BE1F30E94A6062FE788E382
:1005300091E0215080409040E1F700C0000063E06E
:1005400084E40E943708C82F64E084E40E943708DE
:10055000D82F65E084E40E94370866E084E40E94B6
:100560003708C13099F4D13089F40E94A6062FE7EC
:1005700088E391E0215080409040E1F700C0000006
:100580006CEB71E080E00E94F80772CE0E94EA06F0
:10059000D6CF833589F40E94A6062FE788E391E041
:1005A000215080409040E1F700C000006EEC71E007
:1005B00080E00E94F8075CCE0E94610671CF83350F
:1005C00041F46EEC71E080E00E94F8070E94A606FC
:1005D0004FCE8A3009F44CCE8D3009F449CE9FECD1
:1005E000980F933008F06CC0813339F0823341F0BA
:1005F000833351F0E12CF12C0BC0E12CF12C08C01D
:10060000EE24E394F12C04C06894EE24E1F8F12C7C
:10061000813331F46CED71E080E00E94F8070DC089
:10062000823331F463EE71E080E00E94F80705C088
:100630006AEE71E080E00E94F8070E944B05892B6A
:10064000E1F32FE788E391E0215080409040E1F70B
:1006500000C0000000E010E063E084E40E9437087E
:10066000C82F64E084E40E943708D82F65E084E452
:100670000E94370866E084E40E943708C130E9F43C
:10068000D130D9F40E151F053CF40E944B05892B7F
:10069000E1F30F5F1F4FE0CF0E94A6062FE788E32C
:1006A00091E0215080409040E1F700C000006CEBE9
:1006B00071E080E00E94F807DBCD0E94EA06CCCF13
:1006C0008835B9F461EF71E080E00E94F80767E0D7
:1006D00083E40E9427082FEF83ED90E321508040B0
:1006E0009040E1F700C0000067E083E40E942B081F
:1006F000BFCD8F3409F0BCCD68EF71E080E00E947F
:10070000F8070E944B05892BE1F30E94A6062FE70C
:1007100088E391E0215080409040E1F700C0000064
:1007200063E084E40E943708C82F64E084E40E94F8
:100730003708D82F65E084E40E94370866E084E437
:100740000E943708C13099F4D13089F40E94A6067E
:100750002FE788E391E0215080409040E1F700C00E
:1007600000006CEB71E080E00E94F80781CD0E94F0
:040770006207D6CF77
:1007740090E0FC01E154F109E432F10508F067C0AE
:10078400E65DFF4F0C941908413059F42AB381E017
:1007940090E002C0880F991F6A95E2F7822B8ABB0A
:1007A40008952AB381E090E002C0880F991F6A95EA
:1007B400E2F7809582238ABB0895413059F427B328
:1007C40081E090E002C0880F991F6A95E2F7822BBE
:1007D40087BB089527B381E090E002C0880F991F7A
:1007E4006A95E2F78095822387BB0895413059F4D6
:1007F40024B381E090E002C0880F991F6A95E2F764
:10080400822B84BB089524B381E090E002C0880F5A
:10081400991F6A95E2F78095822384BB089541303D
:1008240059F421B381E090E002C0880F991F6A95C2
:10083400E2F7822B81BB089521B381E090E002C0EE
:10084400880F991F6A95E2F78095822381BB0895EA
:1008540090E0FC01E154F109E432F10508F067C0CD
:10086400E25BFF4F0C941908413059F42BB381E03B
:1008740090E002C0880F991F6A95E2F7822B8BBB28
:1008840008952BB381E090E002C0880F991F6A9508
:10089400E2F7809582238BBB0895413059F428B345
:1008A40081E090E002C0880F991F6A95E2F7822BDD
:1008B40088BB089528B381E090E002C0880F991F97
:1008C4006A95E2F78095822388BB0895413059F4F4
:1008D40025B381E090E002C0880F991F6A95E2F782
:1008E400822B85BB089525B381E090E002C0880F78
:1008F400991F6A95E2F78095822385BB089541305C
:1009040059F422B381E090E002C0880F991F6A95E0
:10091400E2F7822B82BB089522B381E090E002C00B
:10092400880F991F6A95E2F78095822382BB089508
:100934000F931F93082F10E0F801E154F109E432FA
:10094400F10508F057C0EE58FF4F0C94190849B34D
:1009540081E090E09C01062E02C0220F331F0A940E
:10096400E2F7842F90E08223932302C09695879523
:100974006A95E2F7982F3EC046B381E090E09C016F
:10098400062E02C0220F331F0A94E2F7842F90E050
:100994008223932302C0969587956A95E2F7982F50
:1009A40029C043B381E090E09C01062E02C0220FCF
:1009B400331F0A94E2F7842F90E08223932302C02A
:1009C400969587956A95E2F7982F14C040B381E015
:1009D40090E09C01062E02C0220F331F0A94E2F716
:1009E400842F90E08223932302C0969587956A957D
:0C09F400E2F7982F892F1F910F910895B2
:100A000063E084E40E9437088093610064E084E43A
:100A10000E9437088093620065E084E40E943708F2
:100A20008093630066E084E40E943708809360004E
:100A300090916300913039F4813029F40E94A60628
:100A400081E090E0089580916100813049F49091B7
:100A50006200913029F40E94920580E090E00895B0
:100A6000813049F490916200911105C00E946106A5
:100A700080E090E00895811109C08091620081308A
:100A800029F40E941C0680E090E008950E949205DF
:060A900080E090E00895F3
:100A960063E084E40E9437088093610064E084E4A4
:100AA6000E9437088093620065E084E40E9437085C
:100AB6008093630066E084E40E94370880936000B8
:100AC60090916100911104C020916200222321F1CE
:100AD600913049F490916200913029F40E94D70533
:100AE60080E090E0089590916300913039F481118F
:100AF60005C00E941C0680E090E00895911107C091
:100B0600813029F40E94610680E090E008950E94F9
:0E0B1600D70580E090E0089581E090E008951A
:100B240040E050E060E070E081E490E00E942A043C
:100B340041E050E061E070E081E490E00E942A042A
:100B440040E050E062E070E081E490E00E942A041A
:100B540041E050E063E070E081E490E00E942A0408
:100B640040E050E064E070E081E490E00E942A04F8
:100B740041E050E065E070E081E490E00E942A04E6
:100B840040E050E066E070E081E490E00E942A04D6
:100B940041E050E067E070E081E490E00E942A04C4
:0A0BA400809165000E94E0070895AB
:100BAE0041E050E060E070E081E490E00E942A04B1
:100BBE0040E050E061E070E081E490E00E942A04A1
:100BCE0041E050E062E070E081E490E00E942A048F
:100BDE0040E050E063E070E081E490E00E942A047F
:100BEE0041E050E064E070E081E490E00E942A046D
:100BFE0040E050E065E070E081E490E00E942A045D
:100C0E0041E050E066E070E081E490E00E942A044A
:100C1E0040E050E067E070E081E490E00E942A043A
:0A0C2E00809165000E94E007089520
:100C380040E050E060E070E081E490E00E942A0427
:100C480041E050E061E070E081E490E00E942A0415
:100C580040E050E062E070E081E490E00E942A0405
:100C680041E050E063E070E081E490E00E942A04F3
:100C780041E050E064E070E081E490E00E942A04E2
:100C880040E050E065E070E081E490E00E942A04D2
:100C980041E050E066E070E081E490E00E942A04C0
:100CA80040E050E067E070E081E490E00E942A04B0
:0A0CB800809164000E94E007089597
:100CC20041E050E060E070E081E490E00E942A049C
:100CD20040E050E061E070E081E490E00E942A048C
:100CE20041E050E062E070E081E490E00E942A047A
:100CF20040E050E063E070E081E490E00E942A046A
:100D020040E050E064E070E081E490E00E942A0458
:100D120041E050E065E070E081E490E00E942A0446
:100D220040E050E066E070E081E490E00E942A0436
:100D320041E050E067E070E081E490E00E942A0424
:0A0D4200809164000E94E00708950C
:100D4C0040E050E060E070E081E490E00E942A0412
:100D5C0040E050E061E070E081E490E00E942A0401
:100D6C0040E050E062E070E081E490E00E942A04F0
:100D7C0040E050E063E070E081E490E00E942A04DF
:100D8C0040E050E064E070E081E490E00E942A04CE
:100D9C0040E050E065E070E081E490E00E942A04BD
:100DAC0040E050E066E070E081E490E00E942A04AC
:100DBC0040E050E067E070E081E490E00E942A049B
:080DCC0080E00E94E007089599
:100DD40065E084E40E9437088093630066E084E45D
:100DE4000E9437088093600090916300913029F449
:100DF400811103C00E94610618C0911105C08130A1
:100E040019F40E941C0611C020916100213039F4AC
:100E140020916200213019F40E94A60606C09111A7
:100E240004C0811102C00E94D70580916100813005
:100E340039F480916200813031F080E090E00895CF
:0C0E440080E090E0089581E090E00895C7
:100E500063E084E40E9437088093610064E084E4E6
:100E60000E9437088093620090916100913029F4CC
:100E7000811103C00E94610614C0911105C0813028
:100E800019F40E941C060DC0913029F4813019F428
:100E90000E94A60606C0911104C0811102C00E94E2
:100EA000920580916100813039F480916200813037
:100EB00031F080E090E0089580E090E0089581E0D6
:040EC00090E0089521
:100EC40063E084E40E9437088093610064E084E472
:100ED4000E9437088093620090916100913029F458
:100EE400811103C00E941C0614C0911105C08130F9
:100EF40019F40E9461060DC0913029F4813019F46F
:100F04000E94A60606C0911104C0811102C00E946D
:100F1400D70580916100813039F48091620081307D
:100F240031F080E090E0089580E090E0089581E061
:040F340090E00895AC
:100F3800DC01CB01880F991FAA1FBB1F880F991FBF
:100F4800AA1FBB1F9C01AD01220F331F441F551F51
:100F580060E072E18AE790E00E94BE072150310903
:100F680030BD29B98BB182608BB988E18AB986E82E
:040F780080BD08959B
:100F7C00A1E21A2EAA1BBB1BFD010DC0AA1FBB1F91
:100F8C00EE1FFF1FA217B307E407F50720F0A21B03
:100F9C00B30BE40BF50B661F771F881F991F1A9470
:100FAC0069F760957095809590959B01AC01BD019A
:040FBC00CF010895C4
:100FC00097B3986097BB93B7906493BF93B79860BB
:100FD00093BF93B7916093BF93B7946093BF93B758
:100FE000906193BF93B7906293BF80958CBF089533
:100FF000CF92DF92EF926B01E82E06C09FEFC91AE5
:10100000D90AE90A0E942F08F6018491E7FC808141
:0C1010008111F4CFEF90DF90CF90089595
:10101C00EC010E943F080E943E08CE010E9440084D
:06102C00CE010E943C0809
:0C103200EE0FFF1F0590F491E02D0994D3
:08103E0040E00E94BA0308958E
:0810460041E00E94BA03089585
:08104E0041E00E942A0408950C
:0810560040E00E942A04089505
:08105E005D9BFECF8CB90895E3
:081066005F9BFECF8CB10895E1
:06106E000E949A0408959F
:041074000C940000D8
:041078000E94C8000A
:02107C000895D5
:02107E000895D3
:021080000895D1
:011082003736
:00000001FF
