:100000000C949C000C94C4070C94C4070C94C40773
:100010000C94C4070C94C4070C94C4070C94C40734
:100020000C94C4070C94C4070C94C4070C94C40724
:100030000C94C4070C94C4070C94C4070C94C40714
:100040000C94C4070C94C4070C94C4070C94C40704
:100050000C94C4077E039703B003C903E103E103D3
:10006000E103E103E103E103E103E103E103E10370
:10007000E103E103E103E103E103E103E103E10360
:10008000E103E103E103E103E103E103E103E10350
:10009000E103E1037E039703B003C903EE03070402
:1000A00020043904510451045104510451045104F1
:1000B0005104510451045104510451045104510498
:1000C0005104510451045104510451045104510488
:1000D000510451045104510451045104EE03070426
:1000E00020043904610476048B04A004B404B4042D
:1000F000B404B404B404B404B404B404B404B40440
:10010000B404B404B404B404B404B404B404B4042F
:10011000B404B404B404B404B404B404B404B4041F
:10012000B404B404610476048B04A0040060006489
:100130008000640066000F9611241FBECFE5D8E052
:10014000DEBFCDBFECE2F1E041E017C0B591A59173
:1001500035912591059107FD0CC095918591EF0191
:10016000F92FE82F05900D92A217B307D9F7FE01DA
:1001700004C01D92A217B307E1F7E833F40731F783
:0C0180000E94F8000C949807F894FFCF40
:10018C005B44454255475D205541525420496E69A8
:10019C007469616C697A65642040393630300D0AB7
:1001AC00004F4B3A460D0A00730D0A004F4B3A4272
:1001BC000D0A004F4B3A500D0A004F4B3A530D0AA3
:1001CC00004F4B3A4E0D0A004F4B3A310D0A004F7F
:1001DC004B3A320D0A004F4B3A330D0A004F4B3A53
:0401EC004B0D0A00AD
:1001F000C0E0D0E006C041E06C2F81E40E947203B1
:100200002196C830D105BCF363E084E40E94A907BD
:1002100064E084E40E94A90760E083E40E94AD07E3
:1002200067E083E40E94AD0760E083E40E94B107C9
:100230002FEF89E698E1215080409040E1F700C01F
:10024000000060E083E40E94B50760E875E280E0AA
:1002500090E00E9426076CE871E080E00E9482072F
:100260000E94BD078634A9F56DEA71E080E00E9426
:1002700082070E94B804892BE1F30E94A8062FE7A9
:1002800088E391E0215080409040E1F700C00000F9
:1002900063E084E40E94C107C82F64E084E40E9404
:1002A000C107C13099F4813089F40E94A8062FE774
:1002B00088E391E0215080409040E1F700C00000C9
:1002C00064EB71E080E00E948207CACF0E94EC06D6
:1002D000DFCF8234F1F568EB71E080E00E948207A5
:1002E0000E944D05892BE1F30E94A8062FE788E3C1
:1002F00091E0215080409040E1F700C0000063E0B1
:1003000084E40E94C107C82F64E084E40E94C1070E
:10031000D82F65E084E40E94C10766E084E40E946F
:10032000C107C13099F4D13089F40E94A8062FE7A3
:1003300088E391E0215080409040E1F700C0000048
:1003400064EB71E080E00E9482078ACF0E9403057F
:10035000D6CF803509F094C06FEB71E080E00E9449
:1003600082070E94BD078634A9F56DEA71E080E03E
:100370000E9482070E94B804892BE1F30E94A8061C
:100380002FE788E391E0215080409040E1F700C0E2
:10039000000063E084E40E94C107C82F64E084E4A5
:1003A0000E94C107C13099F4813089F40E94A806E7
:1003B0002FE788E391E0215080409040E1F700C0B2
:1003C000000064EB71E080E00E94820749CF0E9448
:1003D000EC06DFCF8234F1F568EB71E080E00E943B
:1003E00082070E944D05892BE1F30E94A8062FE7A2
:1003F00088E391E0215080409040E1F700C0000088
:1004000063E084E40E94C107C82F64E084E40E9492
:10041000C107D82F65E084E40E94C10766E084E448
:100420000E94C107C13099F4D13089F40E94A80616
:100430002FE788E391E0215080409040E1F700C031
:10044000000064EB71E080E00E94820709CF0E9407
:100450000305D6CF833589F40E94A8062FE788E3E9
:1004600091E0215080409040E1F700C0000066EC30
:1004700071E080E00E948207F3CE0E941E0671CFD9
:100480008E3409F094C06DEC71E080E00E94820728
:100490000E94BD078634A9F56DEA71E080E00E94F4
:1004A00082070E94B804892BE1F30E94A8062FE777
:1004B00088E391E0215080409040E1F700C00000C7
:1004C00063E084E40E94C107C82F64E084E40E94D2
:1004D000C107C13099F4813089F40E94A8062FE742
:1004E00088E391E0215080409040E1F700C0000097
:1004F00064EB71E080E00E948207B2CE0E94EC06BD
:10050000DFCF8234F1F568EB71E080E00E94820772
:100510000E944D05892BE1F30E94A8062FE788E38E
:1005200091E0215080409040E1F700C0000063E07E
:1005300084E40E94C107C82F64E084E40E94C107DC
:10054000D82F65E084E40E94C10766E084E40E943D
:10055000C107C13099F4D13089F40E94A8062FE771
:1005600088E391E0215080409040E1F700C0000016
:1005700064EB71E080E00E94820772CE0E94030566
:10058000D6CF833589F40E94A8062FE788E391E04F
:10059000215080409040E1F700C0000066EC71E01F
:1005A00080E00E9482075CCE0E94630671CF833593
:1005B00041F466EC71E080E00E9482070E94A80688
:1005C0004FCE8A3009F44CCE8D3009F449CE9FECE1
:1005D000980F933008F06CC0813339F0823341F0CA
:1005E000833351F0E12CF12C0BC0E12CF12C08C02D
:1005F000EE24E394F12C04C06894EE24E1F8F12C8D
:10060000813331F464ED71E080E00E9482070DC017
:10061000823331F46BED71E080E00E94820705C007
:1006200062EE71E080E00E9482070E944D05892BF6
:10063000E1F32FE788E391E0215080409040E1F71B
:1006400000C0000000E010E063E084E40E94C10705
:10065000C82F64E084E40E94C107D82F65E084E4D9
:100660000E94C10766E084E40E94C107C130E9F43A
:10067000D130D9F40E151F053CF40E944D05892B8D
:10068000E1F30F5F1F4FE0CF0E94A8062FE788E33A
:1006900091E0215080409040E1F700C0000064EB01
:1006A00071E080E00E948207DBCD0E940305CCCF81
:1006B000883509F0D5CD69EE71E080E00E948207AF
:1006C00067E083E40E94B1072FEF83ED90E32150B0
:1006D00080409040E1F700C0000067E083E40E94A2
:0406E000B507BECDCF
:1006E40090E0FC01E154F109E432F10508F067C03F
:1006F400E65DFF4F0C94A307413059F42AB381E01F
:1007040090E002C0880F991F6A95E2F7822B8ABB9A
:1007140008952AB381E090E002C0880F991F6A957A
:10072400E2F7809582238ABB0895413059F427B3B8
:1007340081E090E002C0880F991F6A95E2F7822B4E
:1007440087BB089527B381E090E002C0880F991F0A
:100754006A95E2F78095822387BB0895413059F466
:1007640024B381E090E002C0880F991F6A95E2F7F4
:10077400822B84BB089524B381E090E002C0880FEB
:10078400991F6A95E2F78095822384BB08954130CE
:1007940059F421B381E090E002C0880F991F6A9553
:1007A400E2F7822B81BB089521B381E090E002C07F
:1007B400880F991F6A95E2F78095822381BB08957B
:1007C40090E0FC01E154F109E432F10508F067C05E
:1007D400E25BFF4F0C94A307413059F42BB381E043
:1007E40090E002C0880F991F6A95E2F7822B8BBBB9
:1007F40008952BB381E090E002C0880F991F6A9599
:10080400E2F7809582238BBB0895413059F428B3D5
:1008140081E090E002C0880F991F6A95E2F7822B6D
:1008240088BB089528B381E090E002C0880F991F27
:100834006A95E2F78095822388BB0895413059F484
:1008440025B381E090E002C0880F991F6A95E2F712
:10085400822B85BB089525B381E090E002C0880F08
:10086400991F6A95E2F78095822385BB08954130EC
:1008740059F422B381E090E002C0880F991F6A9571
:10088400E2F7822B82BB089522B381E090E002C09C
:10089400880F991F6A95E2F78095822382BB089599
:1008A4000F931F93082F10E0F801E154F109E4328B
:1008B400F10508F057C0EE58FF4F0C94A30749B355
:1008C40081E090E09C01062E02C0220F331F0A949F
:1008D400E2F7842F90E08223932302C096958795B4
:1008E4006A95E2F7982F3EC046B381E090E09C0100
:1008F400062E02C0220F331F0A94E2F7842F90E0E1
:100904008223932302C0969587956A95E2F7982FE0
:1009140029C043B381E090E09C01062E02C0220F5F
:10092400331F0A94E2F7842F90E08223932302C0BA
:10093400969587956A95E2F7982F14C040B381E0A5
:1009440090E09C01062E02C0220F331F0A94E2F7A6
:10095400842F90E08223932302C0969587956A950D
:0C096400E2F7982F892F1F910F91089542
:1009700063E084E40E94C1078093610064E084E442
:100980000E94C1078093620065E084E40E94C10771
:100990008093630066E084E40E94C1078093600056
:1009A00090916300913039F4813029F40E94A806B7
:1009B00081E090E0089580916100813049F4909148
:1009C0006200913029F40E94940580E090E008953F
:1009D000813049F490916200911105C00E94630634
:1009E00080E090E00895811109C08091620081301B
:1009F00029F40E941E0680E090E008950E9494056C
:060A000080E090E0089583
:100A060063E084E40E94C1078093610064E084E4AB
:100A16000E94C1078093620065E084E40E94C107DA
:100A26008093630066E084E40E94C10780936000BF
:100A360090916300913029F4811103C00E946306EE
:100A460018C0911105C0813019F40E941E0611C00C
:100A560020916100213039F420916200213019F48F
:100A66000E94A80606C0911104C0811102C00E940E
:100A7600D90580916100813039F48091620081301E
:100A860031F080E090E0089580E090E0089581E004
:040A960090E008954F
:100A9A0063E084E40E94C1078093610064E084E417
:100AAA000E94C1078093620065E084E40E94C10746
:100ABA008093630066E084E40E94C107809360002B
:100ACA0090916100911104C020916200222321F1CA
:100ADA00913049F490916200913029F40E94D9052D
:100AEA0080E090E0089590916300913039F481118B
:100AFA0005C00E941E0680E090E00895911107C08B
:100B0A00813029F40E94630680E090E008950E94F3
:0E0B1A00D90580E090E0089581E090E0089514
:100B280040E050E060E070E081E490E00E94E20381
:100B380041E050E061E070E081E490E00E94E2036F
:100B480040E050E062E070E081E490E00E94E2035F
:100B580041E050E063E070E081E490E00E94E2034D
:100B680040E050E064E070E081E490E00E94E2033D
:100B780041E050E065E070E081E490E00E94E2032B
:100B880040E050E066E070E081E490E00E94E2031B
:100B980041E050E067E070E081E490E00E94E20309
:0A0BA800809165000E946A0708951D
:100BB20041E050E060E070E081E490E00E94E203F6
:100BC20040E050E061E070E081E490E00E94E203E6
:100BD20041E050E062E070E081E490E00E94E203D4
:100BE20040E050E063E070E081E490E00E94E203C4
:100BF20041E050E064E070E081E490E00E94E203B2
:100C020040E050E065E070E081E490E00E94E203A1
:100C120041E050E066E070E081E490E00E94E2038F
:100C220040E050E067E070E081E490E00E94E2037F
:0A0C3200809165000E946A07089592
:100C3C0040E050E060E070E081E490E00E94E2036C
:100C4C0041E050E061E070E081E490E00E94E2035A
:100C5C0040E050E062E070E081E490E00E94E2034A
:100C6C0041E050E063E070E081E490E00E94E20338
:100C7C0041E050E064E070E081E490E00E94E20327
:100C8C0040E050E065E070E081E490E00E94E20317
:100C9C0041E050E066E070E081E490E00E94E20305
:100CAC0040E050E067E070E081E490E00E94E203F5
:0A0CBC00809164000E946A07089509
:100CC60041E050E060E070E081E490E00E94E203E1
:100CD60040E050E061E070E081E490E00E94E203D1
:100CE60041E050E062E070E081E490E00E94E203BF
:100CF60040E050E063E070E081E490E00E94E203AF
:100D060040E050E064E070E081E490E00E94E2039D
:100D160041E050E065E070E081E490E00E94E2038B
:100D260040E050E066E070E081E490E00E94E2037B
:100D360041E050E067E070E081E490E00E94E20369
:0A0D4600809164000E946A0708957E
:100D500040E050E060E070E081E490E00E94E20357
:100D600040E050E061E070E081E490E00E94E20346
:100D700040E050E062E070E081E490E00E94E20335
:100D800040E050E063E070E081E490E00E94E20324
:100D900040E050E064E070E081E490E00E94E20313
:100DA00040E050E065E070E081E490E00E94E20302
:100DB00040E050E066E070E081E490E00E94E203F1
:100DC00040E050E067E070E081E490E00E94E203E0
:080DD00080E00E946A0708950B
:100DD80063E084E40E94C1078093610064E084E4D6
:100DE8000E94C1078093620090916100913029F4BC
:100DF800811103C00E94630614C0911105C081309F
:100E080019F40E941E060DC0913029F4813019F49E
:100E18000E94A80606C0911104C0811102C00E9458
:100E2800940580916100813039F4809162008130AD
:100E380031F080E090E0089580E090E0089581E04E
:040E480090E0089599
:100E4C00DC01CB01880F991FAA1FBB1F880F991FAC
:100E5C00AA1FBB1F9C01AD01220F331F441F551F3E
:100E6C0060E072E18AE790E00E9448072150310966
:100E7C0030BD29B98BB182608BB988E18AB986E81B
:040E8C0080BD089588
:100E9000A1E21A2EAA1BBB1BFD010DC0AA1FBB1F7E
:100EA000EE1FFF1FA217B307E407F50720F0A21BF0
:100EB000B30BE40BF50B661F771F881F991F1A945D
:100EC00069F760957095809590959B01AC01BD0187
:040ED000CF010895B1
:100ED40097B3986097BB93B7906493BF93B79860A8
:100EE40093BF93B7916093BF93B7946093BF93B745
:100EF400906193BF93B7906293BF80958CBF089520
:100F0400CF92DF92EF926B01E82E06C09FEFC91AD1
:100F1400D90AE90A0E94B907F6018491E7FC8081A5
:0C0F24008111F4CFEF90DF90CF90089582
:100F3000EC010E94C9070E94C807CE010E94CA079F
:060F4000CE010E94C6076D
:0C0F4600EE0FFF1F0590F491E02D0994C0
:080F520040E00E9472030895C3
:080F5A0041E00E9472030895BA
:080F620041E00E94E203089542
:080F6A0040E00E94E20308953B
:080F72005D9BFECF8CB90895D0
:080F7A005F9BFECF8CB10895CE
:060F82000E9452040895D4
:040F88000C940000C5
:040F8C000E94C400FB
:020F90000895C2
:020F92000895C0
:020F94000895BE
:010F960096C4
:010F97003722
:00000001FF
