:100000000C949A000C94EE060C94EE060C94EE06FA
:100010000C94EE060C94EE060C94EE060C94EE0690
:100020000C94EE060C94EE060C94EE060C94EE0680
:100030000C94EE060C94EE060C94EE060C94EE0670
:100040000C94EE060C94EE060C94EE060C94EE0660
:100050000C94EE06290342035B0374038C038C03A8
:100060008C038C038C038C038C038C038C038C0318
:100070008C038C038C038C038C038C038C038C0308
:100080008C038C038C038C038C038C038C038C03F8
:100090008C038C03290342035B0374039903B203AB
:1000A000CB03E403FC03FC03FC03FC03FC03FC03A1
:1000B000FC03FC03FC03FC03FC03FC03FC03FC0348
:1000C000FC03FC03FC03FC03FC03FC03FC03FC0338
:1000D000FC03FC03FC03FC03FC03FC039903B203D5
:1000E000CB03E4030C04210436044B045F045F04D7
:1000F0005F045F045F045F045F045F045F045F04E8
:100100005F045F045F045F045F045F045F045F04D7
:100110005F045F045F045F045F045F045F045F04C7
:100120005F045F040C04210436044B040060006289
:10013000000DEA0011241FBECFE5D8E0DEBFCDBF21
:10014000ECE2F1E041E017C0B591A5913591259120
:10015000059107FD0CC095918591EF01F92FE82FCE
:1001600005900D92A217B307D9F7FE0104C01D92A6
:10017000A217B307E1F7E333F40731F70E94F60063
:080180000C94C206F894FFCFB5
:100188005B44454255475D205541525420496E69AC
:100198007469616C697A65642040393630300D0ABB
:1001A800004F4B3A460D0A00730D0A004F4B3A4276
:1001B8000D0A004F4B3A500D0A004F4B3A4E0D0AAC
:1001C800004F4B3A530D0A004F4B3A310D0A004F7E
:1001D8004B3A320D0A004F4B3A330D0A004F4B3A57
:0401E8004B0D0A00B1
:1001EC0000E010E007C041E0602F81E40E941D0395
:1001FC000F5F1F4F08301105B4F365E084E40E94D3
:10020C00D30666E084E40E94D30660E083E40E9497
:10021C00D70667E083E40E94D70660E083E40E947F
:10022C00DB062FEF89E698E1215080409040E1F702
:10023C0000C0000060E083E40E94DF0660E875E225
:10024C0080E090E00E94340668E871E080E00E9453
:10025C0090060E94E706863489F569EA71E080E031
:10026C000E9490060E94A6062FE788E391E0215099
:10027C0080409040E1F700C0000065E084E40E94FB
:10028C00EB06C82F66E084E40E94EB06C13099F4BB
:10029C00813089F40E9477052FE788E391E02150A3
:1002AC0080409040E1F700C0000060EB71E080E01E
:1002BC000E949006CECF0E94B805DFCF823489F51C
:1002CC0064EB71E080E00E9490060E94B4062FE778
:1002DC0088E391E0215080409040E1F700C000009D
:1002EC0065E084E40E94EB06C82F66E084E40E947B
:1002FC00EB06C13099F4813089F40E9477052FE721
:10030C0088E391E0215080409040E1F700C000006C
:10031C0060EB71E080E00E9490069BCF0E94F60596
:10032C00DFCF803509F070C06BEB71E080E00E948C
:10033C0090060E94E706863489F569EA71E080E050
:10034C000E9490060E94A6062FE789EA93E02150AE
:10035C0080409040E1F700C0000065E084E40E941A
:10036C00EB06C82F66E084E40E94EB06C13099F4DA
:10037C00813089F40E9477052FE788E391E02150C2
:10038C0080409040E1F700C0000060EB71E080E03D
:10039C000E9490065ECF0E94B805DFCF823489F5AB
:1003AC0064EB71E080E00E9490060E94B4062FE797
:1003BC0089EA93E0215080409040E1F700C00000B2
:1003CC0065E084E40E94EB06C82F66E084E40E949A
:1003DC00EB06C13099F4813089F40E9477052FE740
:1003EC0088E391E0215080409040E1F700C000008C
:1003FC0060EB71E080E00E9490062BCF0E94F60526
:10040C00DFCF0E94ED0495CF8E3409F072C062EC00
:10041C0071E080E00E9490060E94E706863499F510
:10042C0069EA71E080E00E9490060E94A6062FE720
:10043C0089EA93E0215080409040E1F700C0000031
:10044C000E94A60665E084E40E94EB06C82F66E0D5
:10045C0084E40E94EB06C13099F4813089F40E9447
:10046C0077052FE788E391E0215080409040E1F739
:10047C0000C0000060EB71E080E00E949006E9CEC5
:10048C000E94B805DDCF823489F564EB71E080E021
:10049C000E9490060E94B4062FE789EA93E021504F
:1004AC0080409040E1F700C0000065E084E40E94C9
:1004BC00EB06C82F66E084E40E94EB06C13099F489
:1004CC00813089F40E9477052FE788E391E0215071
:1004DC0080409040E1F700C0000060EB71E080E0EC
:1004EC000E949006B6CE0E94F605DFCF0E94320520
:1004FC0093CF833541F469EC71E080E00E94900663
:10050C000E947705A6CE8A3009F4A3CE8D3009F46B
:10051C00A0CE9FEC980F933008F06FC0E82EF12C12
:10052C0021E3E21AF108813331F460ED71E080E0EF
:10053C000E9490060DC0823331F467ED71E080E0CB
:10054C000E94900605C06EED71E080E00E9490065E
:10055C000E94B4068FEF93EF21E081509040204031
:10056C00E1F700C0000000E010E065E084E40E94C8
:10057C00EB06C82F66E084E40E94EB06C130D1F58F
:10058C008130C1F50E151F0524F50E94B4068FEFBE
:10059C009DEE22E0815090402040E1F700C0000029
:1005AC0065E084E40E94EB06C82F66E084E40E94B8
:1005BC00EB06C13059F4813049F40E94B4068FE146
:1005CC009EE40197F1F700C00000EACF0F5F1F4FC8
:1005DC00CCCF0E9477059FE728E381E09150204023
:1005EC008040E1F700C0000060EB71E080E00E9409
:1005FC0090062FCE0E94F605B8CF883509F029CE8B
:10060C0065EE71E080E00E94900667E083E40E9452
:10061C00DB069FEF23ED80E3915020408040E1F713
:0E062C0000C0000067E083E40E94DF0612CEEB
:10063A0090E0FC01E154F109E432F10508F067C0E9
:10064A00E65DFF4F0C94CD06413059F42AB381E0A0
:10065A0090E002C0880F991F6A95E2F7822B8ABB45
:10066A0008952AB381E090E002C0880F991F6A9525
:10067A00E2F7809582238ABB0895413059F427B363
:10068A0081E090E002C0880F991F6A95E2F7822BF9
:10069A0087BB089527B381E090E002C0880F991FB5
:1006AA006A95E2F78095822387BB0895413059F411
:1006BA0024B381E090E002C0880F991F6A95E2F79F
:1006CA00822B84BB089524B381E090E002C0880F96
:1006DA00991F6A95E2F78095822384BB0895413079
:1006EA0059F421B381E090E002C0880F991F6A95FE
:1006FA00E2F7822B81BB089521B381E090E002C02A
:10070A00880F991F6A95E2F78095822381BB089525
:10071A0090E0FC01E154F109E432F10508F067C008
:10072A00E25BFF4F0C94CD06413059F42BB381E0C4
:10073A0090E002C0880F991F6A95E2F7822B8BBB63
:10074A0008952BB381E090E002C0880F991F6A9543
:10075A00E2F7809582238BBB0895413059F428B380
:10076A0081E090E002C0880F991F6A95E2F7822B18
:10077A0088BB089528B381E090E002C0880F991FD2
:10078A006A95E2F78095822388BB0895413059F42F
:10079A0025B381E090E002C0880F991F6A95E2F7BD
:1007AA00822B85BB089525B381E090E002C0880FB3
:1007BA00991F6A95E2F78095822385BB0895413097
:1007CA0059F422B381E090E002C0880F991F6A951C
:1007DA00E2F7822B82BB089522B381E090E002C047
:1007EA00880F991F6A95E2F78095822382BB089544
:1007FA000F931F93082F10E0F801E154F109E43236
:10080A00F10508F057C0EE58FF4F0C94CD0649B3D6
:10081A0081E090E09C01062E02C0220F331F0A9449
:10082A00E2F7842F90E08223932302C0969587955E
:10083A006A95E2F7982F3EC046B381E090E09C01AA
:10084A00062E02C0220F331F0A94E2F7842F90E08B
:10085A008223932302C0969587956A95E2F7982F8B
:10086A0029C043B381E090E09C01062E02C0220F0A
:10087A00331F0A94E2F7842F90E08223932302C065
:10088A00969587956A95E2F7982F14C040B381E050
:10089A0090E09C01062E02C0220F331F0A94E2F751
:1008AA00842F90E08223932302C0969587956A95B8
:0C08BA00E2F7982F892F1F910F910895ED
:1008C60040E050E060E070E081E490E00E948D033B
:1008D60041E050E061E070E081E490E00E948D0329
:1008E60040E050E062E070E081E490E00E948D0319
:1008F60041E050E063E070E081E490E00E948D0307
:1009060040E050E064E070E081E490E00E948D03F6
:1009160041E050E065E070E081E490E00E948D03E4
:1009260040E050E066E070E081E490E00E948D03D4
:1009360041E050E067E070E081E490E00E948D03C2
:0A094600809161000E947806089578
:1009500041E050E060E070E081E490E00E948D03AF
:1009600040E050E061E070E081E490E00E948D039F
:1009700041E050E062E070E081E490E00E948D038D
:1009800040E050E063E070E081E490E00E948D037D
:1009900041E050E064E070E081E490E00E948D036B
:1009A00040E050E065E070E081E490E00E948D035B
:1009B00041E050E066E070E081E490E00E948D0349
:1009C00040E050E067E070E081E490E00E948D0339
:0A09D000809161000E9478060895EE
:1009DA0040E050E060E070E081E490E00E948D0326
:1009EA0041E050E061E070E081E490E00E948D0314
:1009FA0040E050E062E070E081E490E00E948D0304
:100A0A0041E050E063E070E081E490E00E948D03F1
:100A1A0041E050E064E070E081E490E00E948D03E0
:100A2A0040E050E065E070E081E490E00E948D03D0
:100A3A0041E050E066E070E081E490E00E948D03BE
:100A4A0040E050E067E070E081E490E00E948D03AE
:0A0A5A00809160000E947806089564
:100A640041E050E060E070E081E490E00E948D039A
:100A740040E050E061E070E081E490E00E948D038A
:100A840041E050E062E070E081E490E00E948D0378
:100A940040E050E063E070E081E490E00E948D0368
:100AA40040E050E064E070E081E490E00E948D0357
:100AB40041E050E065E070E081E490E00E948D0345
:100AC40040E050E066E070E081E490E00E948D0335
:100AD40041E050E067E070E081E490E00E948D0323
:0A0AE400809160000E9478060895DA
:100AEE0040E050E060E070E081E490E00E948D0311
:100AFE0040E050E061E070E081E490E00E948D0300
:100B0E0040E050E062E070E081E490E00E948D03EE
:100B1E0040E050E063E070E081E490E00E948D03DD
:100B2E0040E050E064E070E081E490E00E948D03CC
:100B3E0040E050E065E070E081E490E00E948D03BB
:100B4E0040E050E066E070E081E490E00E948D03AA
:100B5E0040E050E067E070E081E490E00E948D0399
:020B6E000895E8
:100B7000CF93DF9365E084E40E94D30666E084E4CB
:100B80000E94D30665E084E40E94EB06C82F66E06D
:100B900084E40E94EB06D82FC13029F4811103C0F0
:100BA0000E94320514C0C11105C0D13019F40E9451
:100BB000ED040DC0C13029F4D13019F40E9477053D
:100BC00006C0C11104C0D11102C00E946304C1302B
:100BD00029F4D13031F080E090E005C080E090E071
:0C0BE00002C081E090E0DF91CF91089509
:100BEC00CF93DF9365E084E40E94D30666E084E44F
:100BFC000E94D30665E084E40E94EB06C82F66E0F1
:100C0C0084E40E94EB06D82FC11105C0813019F481
:100C1C000E94320514C0C13029F4D11103C00E94C6
:100C2C00ED040DC0C13029F4D13019F40E947705C0
:100C3C0006C0C11104C0D11102C00E94A804C13069
:100C4C0029F4D13031F080E090E005C080E090E0F4
:0C0C5C0002C081E090E0DF91CF9108958C
:100C6800DC01CB01880F991FAA1FBB1F880F991F92
:100C7800AA1FBB1F9C01AD01220F331F441F551F24
:100C880060E072E18AE790E00E945606215031093F
:100C980030BD29B98BB182608BB988E18AB986E801
:040CA80080BD08956E
:100CAC00A1E21A2EAA1BBB1BFD010DC0AA1FBB1F64
:100CBC00EE1FFF1FA217B307E407F50720F0A21BD6
:100CCC00B30BE40BF50B661F771F881F991F1A9443
:100CDC0069F760957095809590959B01AC01BD016D
:040CEC00CF01089597
:100CF00097B3986097BB93B7906493BF93B798608E
:100D000093BF93B7916093BF93B7946093BF93B72A
:100D1000906193BF93B7906293BF80958CBF089505
:100D2000CF92DF92EF926B01E82E06C09FEFC91AB7
:100D3000D90AE90A0E94E306F6018491E7FC808162
:0C0D40008111F4CFEF90DF90CF90089568
:100D4C000E9463042FEF84E39CE02150804090408C
:0C0D5C00E1F700C000000E947705089538
:100D68000E94A8042FE78AE196E021508040904035
:0C0D7800E1F700C000000E94770508951C
:100D8400EC010E94F3060E94F206CE010E94F406D2
:060D9400CE010E94F006F2
:0C0D9A00EE0FFF1F0590F491E02D09946E
:080DA60040E00E941D030895C6
:080DAE0041E00E941D030895BD
:080DB60041E00E948D03089545
:080DBE0040E00E948D0308953E
:080DC6005D9BFECF8CB908957E
:080DCE005F9BFECF8CB108957C
:060DD6000E94FD030895D8
:040DDC000C94000073
:040DE0000E94C200AB
:020DE400089570
:020DE60008956E
:020DE80008956C
:010DEA009672
:010DEB004BBC
:00000001FF
