:100000000C949C000C94AC070C94AC070C94AC07BB
:100010000C94AC070C94AC070C94AC070C94AC0794
:100020000C94AC070C94AC070C94AC070C94AC0784
:100030000C94AC070C94AC070C94AC070C94AC0774
:100040000C94AC070C94AC070C94AC070C94AC0764
:100050000C94AC0763037C039503AE03C603C6038D
:10006000C603C603C603C603C603C603C603C60348
:10007000C603C603C603C603C603C603C603C60338
:10008000C603C603C603C603C603C603C603C60328
:10009000C603C60363037C039503AE03D303EC03DB
:1000A00005041E04360436043604360436043604C9
:1000B0003604360436043604360436043604360470
:1000C0003604360436043604360436043604360460
:1000D000360436043604360436043604D303EC03FF
:1000E00005041E0446045B04700485049904990405
:1000F0009904990499049904990499049904990418
:100100009904990499049904990499049904990407
:1001100099049904990499049904990499049904F7
:100120009904990446045B0470048504006000642B
:100130008000640066000F6611241FBECFE5D8E082
:10014000DEBFCDBFECE2F1E041E017C0B591A59173
:1001500035912591059107FD0CC095918591EF0191
:10016000F92FE82F05900D92A217B307D9F7FE01DA
:1001700004C01D92A217B307E1F7E833F40731F783
:0C0180000E94F8000C948007F894FFCF58
:10018C005B44454255475D205541525420496E69A8
:10019C007469616C697A65642040393630300D0AB7
:1001AC00004F4B3A460D0A00730D0A004F4B3A4272
:1001BC000D0A004F4B3A500D0A004F4B3A530D0AA3
:1001CC00004F4B3A4E0D0A004F4B3A310D0A004F7F
:1001DC004B3A320D0A004F4B3A330D0A004F4B3A53
:0401EC004B0D0A00AD
:1001F000C0E0D0E006C041E06C2F81E40E945703CC
:100200002196C830D105BCF363E084E40E949107D5
:1002100064E084E40E94910760E083E40E94950713
:1002200067E083E40E94950760E083E40E949907F9
:100230002FEF89E698E1215080409040E1F700C01F
:10024000000060E083E40E949D0760E875E280E0C2
:1002500090E00E940E076CE871E080E00E946A075F
:100260000E94A5078634A9F56DEA71E080E00E943E
:100270006A070E94EA04892BE1F30E9490062FE7A7
:1002800088E391E0215080409040E1F700C00000F9
:1002900063E084E40E94A907C82F64E084E40E941C
:1002A000A907C13099F4813089F40E9490062FE7A4
:1002B00088E391E0215080409040E1F700C00000C9
:1002C00064EB71E080E00E946A07CACF0E94D40606
:1002D000DFCF8234A9F568EB71E080E00E946A0705
:1002E0000E943505892BE1F30E9490062FE788E3F1
:1002F00091E0215080409040E1F700C0000063E0B1
:1003000084E40E94A907C82F64E084E40E94A9073E
:10031000C13099F4813089F40E9490062FE788E378
:1003200091E0215080409040E1F700C0000064EB74
:1003300071E080E00E946A0793CF0E949D04DFCFA6
:10034000803509F08BC06FEB71E080E00E946A0796
:100350000E94A5078634A9F56DEA71E080E00E944D
:100360006A070E94EA04892BE1F30E9490062FE7B6
:1003700088E391E0215080409040E1F700C0000008
:1003800063E084E40E94A907C82F64E084E40E942B
:10039000A907C13099F4813089F40E9490062FE7B3
:1003A00088E391E0215080409040E1F700C00000D8
:1003B00064EB71E080E00E946A0752CF0E94D4068D
:1003C000DFCF8234A9F568EB71E080E00E946A0714
:1003D0000E943505892BE1F30E9490062FE788E300
:1003E00091E0215080409040E1F700C0000063E0C0
:1003F00084E40E94A907C82F64E084E40E94A9074E
:10040000C13099F4813089F40E9490062FE788E387
:1004100091E0215080409040E1F700C0000064EB83
:1004200071E080E00E946A071BCF0E949D04DFCF2D
:10043000833589F40E9490062FE788E391E02150EC
:1004400080409040E1F700C0000066EC71E080E081
:100450000E946A0705CF0E9406067ACF8E3409F003
:100460008BC06DEC71E080E00E946A070E94A507D6
:100470008634A9F56DEA71E080E00E946A070E9467
:10048000EA04892BE1F30E9490062FE788E391E0CC
:10049000215080409040E1F700C0000063E084E418
:1004A0000E94A907C82F64E084E40E94A907C13014
:1004B00099F4813089F40E9490062FE788E391E057
:1004C000215080409040E1F700C0000064EB71E0F3
:1004D00080E00E946A07C4CE0E94D406DFCF823437
:1004E000A9F568EB71E080E00E946A070E9435057B
:1004F000892BE1F30E9490062FE788E391E02150D9
:1005000080409040E1F700C0000063E084E40E9476
:10051000A907C82F64E084E40E94A907C13099F4B8
:10052000813089F40E9490062FE788E391E0215002
:1005300080409040E1F700C0000064EB71E080E093
:100540000E946A078DCE0E949D04DFCF833589F417
:100550000E9490062FE788E391E021508040904070
:10056000E1F700C0000066EC71E080E00E946A07DD
:1005700077CE0E944B067ACF833541F466EC71E06A
:1005800080E00E946A070E9490066ACE8A3009F4D1
:1005900067CE8D3009F464CE9FEC980F933008F04D
:1005A0006CC0813339F0823341F0833351F0E12C58
:1005B000F12C0BC0E12CF12C08C0EE24E394F12CBB
:1005C00004C06894EE24E1F8F12C813331F464ED39
:1005D00071E080E00E946A070DC0823331F46BED58
:1005E00071E080E00E946A0705C062EE71E080E081
:1005F0000E946A070E943505892BE1F32FE788E303
:1006000091E0215080409040E1F700C0000000E000
:1006100010E063E084E40E94A907C82F64E084E44A
:100620000E94A907D82F65E084E40E94A90766E02C
:1006300084E40E94A907C130E9F4D130D9F40E1541
:100640001F053CF40E943505892BE1F30F5F1F4F16
:10065000E0CF0E9490062FE788E391E02150804090
:100660009040E1F700C0000064EB71E080E00E9480
:100670006A07F6CD0E949D04CCCF883509F0F0CDF5
:1006800069EE71E080E00E946A0767E083E40E94FF
:1006900099072FEF83ED90E3215080409040E1F7E0
:0E06A00000C0000067E083E40E949D07D9CDF2
:1006AE0090E0FC01E154F109E432F10508F067C075
:1006BE00E65DFF4F0C948B07413059F42AB381E06D
:1006CE0090E002C0880F991F6A95E2F7822B8ABBD1
:1006DE0008952AB381E090E002C0880F991F6A95B1
:1006EE00E2F7809582238ABB0895413059F427B3EF
:1006FE0081E090E002C0880F991F6A95E2F7822B85
:10070E0087BB089527B381E090E002C0880F991F40
:10071E006A95E2F78095822387BB0895413059F49C
:10072E0024B381E090E002C0880F991F6A95E2F72A
:10073E00822B84BB089524B381E090E002C0880F21
:10074E00991F6A95E2F78095822384BB0895413004
:10075E0059F421B381E090E002C0880F991F6A9589
:10076E00E2F7822B81BB089521B381E090E002C0B5
:10077E00880F991F6A95E2F78095822381BB0895B1
:10078E0090E0FC01E154F109E432F10508F067C094
:10079E00E25BFF4F0C948B07413059F42BB381E091
:1007AE0090E002C0880F991F6A95E2F7822B8BBBEF
:1007BE0008952BB381E090E002C0880F991F6A95CF
:1007CE00E2F7809582238BBB0895413059F428B30C
:1007DE0081E090E002C0880F991F6A95E2F7822BA4
:1007EE0088BB089528B381E090E002C0880F991F5E
:1007FE006A95E2F78095822388BB0895413059F4BB
:10080E0025B381E090E002C0880F991F6A95E2F748
:10081E00822B85BB089525B381E090E002C0880F3E
:10082E00991F6A95E2F78095822385BB0895413022
:10083E0059F422B381E090E002C0880F991F6A95A7
:10084E00E2F7822B82BB089522B381E090E002C0D2
:10085E00880F991F6A95E2F78095822382BB0895CF
:10086E000F931F93082F10E0F801E154F109E432C1
:10087E00F10508F057C0EE58FF4F0C948B0749B3A3
:10088E0081E090E09C01062E02C0220F331F0A94D5
:10089E00E2F7842F90E08223932302C096958795EA
:1008AE006A95E2F7982F3EC046B381E090E09C0136
:1008BE00062E02C0220F331F0A94E2F7842F90E017
:1008CE008223932302C0969587956A95E2F7982F17
:1008DE0029C043B381E090E09C01062E02C0220F96
:1008EE00331F0A94E2F7842F90E08223932302C0F1
:1008FE00969587956A95E2F7982F14C040B381E0DC
:10090E0090E09C01062E02C0220F331F0A94E2F7DC
:10091E00842F90E08223932302C0969587956A9543
:0C092E00E2F7982F892F1F910F91089578
:10093A0063E084E40E94A9078093610064E084E490
:10094A000E94A9078093620065E084E40E94A907D7
:10095A008093630066E084E40E94A90780936000A4
:10096A0090916100913039F490916200913019F4BC
:10097A000E94900619C090916300913029F4813049
:10098A0019F40E94C10510C0913029F4811103C0E5
:10099A000E944B0609C0911105C0813019F40E94CA
:1009AA00060602C00E94C10580916100813039F4B7
:1009BA0080916200813031F080E090E0089580E01B
:0A09CA0090E0089581E090E00895A8
:1009D40063E084E40E94A9078093610064E084E4F6
:1009E4000E94A9078093620065E084E40E94A9073D
:1009F4008093630066E084E40E94A907809360000A
:100A040090916300913039F4813029F40E9490066A
:100A140081E090E0089580916100813049F49091E3
:100A24006200913029F40E947C0580E090E00895F2
:100A3400813049F490916200911105C00E944B06E7
:100A440080E090E00895811109C0809162008130B6
:100A540029F40E94060680E090E008950E947C0537
:060A640080E090E008951F
:100A6A0063E084E40E94A9078093610064E084E45F
:100A7A000E94A9078093620065E084E40E94A907A6
:100A8A008093630066E084E40E94A9078093600073
:100A9A0090916100911104C020916200222321F1FA
:100AAA00913049F490916200913029F40E94C10575
:100ABA0080E090E0089590916300913039F48111BB
:100ACA0005C00E94060680E090E00895911107C0D3
:100ADA00813029F40E944B0680E090E008950E943C
:0E0AEA00C10580E090E0089581E090E008955D
:100AF80040E050E060E070E081E490E00E94C703CD
:100B080041E050E061E070E081E490E00E94C703BA
:100B180040E050E062E070E081E490E00E94C703AA
:100B280041E050E063E070E081E490E00E94C70398
:100B380040E050E064E070E081E490E00E94C70388
:100B480041E050E065E070E081E490E00E94C70376
:100B580040E050E066E070E081E490E00E94C70366
:100B680041E050E067E070E081E490E00E94C70354
:0A0B7800809165000E945207089565
:100B820041E050E060E070E081E490E00E94C70341
:100B920040E050E061E070E081E490E00E94C70331
:100BA20041E050E062E070E081E490E00E94C7031F
:100BB20040E050E063E070E081E490E00E94C7030F
:100BC20041E050E064E070E081E490E00E94C703FD
:100BD20040E050E065E070E081E490E00E94C703ED
:100BE20041E050E066E070E081E490E00E94C703DB
:100BF20040E050E067E070E081E490E00E94C703CB
:0A0C0200809165000E9452070895DA
:100C0C0040E050E060E070E081E490E00E94C703B7
:100C1C0041E050E061E070E081E490E00E94C703A5
:100C2C0040E050E062E070E081E490E00E94C70395
:100C3C0041E050E063E070E081E490E00E94C70383
:100C4C0041E050E064E070E081E490E00E94C70372
:100C5C0040E050E065E070E081E490E00E94C70362
:100C6C0041E050E066E070E081E490E00E94C70350
:100C7C0040E050E067E070E081E490E00E94C70340
:0A0C8C00809164000E945207089551
:100C960041E050E060E070E081E490E00E94C7032C
:100CA60040E050E061E070E081E490E00E94C7031C
:100CB60041E050E062E070E081E490E00E94C7030A
:100CC60040E050E063E070E081E490E00E94C703FA
:100CD60040E050E064E070E081E490E00E94C703E9
:100CE60041E050E065E070E081E490E00E94C703D7
:100CF60040E050E066E070E081E490E00E94C703C7
:100D060041E050E067E070E081E490E00E94C703B4
:0A0D1600809164000E9452070895C6
:100D200040E050E060E070E081E490E00E94C703A2
:100D300040E050E061E070E081E490E00E94C70391
:100D400040E050E062E070E081E490E00E94C70380
:100D500040E050E063E070E081E490E00E94C7036F
:100D600040E050E064E070E081E490E00E94C7035E
:100D700040E050E065E070E081E490E00E94C7034D
:100D800040E050E066E070E081E490E00E94C7033C
:100D900040E050E067E070E081E490E00E94C7032B
:080DA00080E00E945207089553
:100DA80063E084E40E94A9078093610064E084E41E
:100DB8000E94A9078093620090916100913029F404
:100DC800811103C00E944B0614C0911105C08130E7
:100DD80019F40E9406060DC0913029F4813019F4E7
:100DE8000E94900606C0911104C0811102C00E94A1
:100DF8007C0580916100813039F4809162008130F6
:100E080031F080E090E0089580E090E0089581E07E
:040E180090E00895C9
:100E1C00DC01CB01880F991FAA1FBB1F880F991FDC
:100E2C00AA1FBB1F9C01AD01220F331F441F551F6E
:100E3C0060E072E18AE790E00E94300721503109AE
:100E4C0030BD29B98BB182608BB988E18AB986E84B
:040E5C0080BD0895B8
:100E6000A1E21A2EAA1BBB1BFD010DC0AA1FBB1FAE
:100E7000EE1FFF1FA217B307E407F50720F0A21B20
:100E8000B30BE40BF50B661F771F881F991F1A948D
:100E900069F760957095809590959B01AC01BD01B7
:040EA000CF010895E1
:100EA40097B3986097BB93B7906493BF93B79860D8
:100EB40093BF93B7916093BF93B7946093BF93B775
:100EC400906193BF93B7906293BF80958CBF089550
:100ED400CF92DF92EF926B01E82E06C09FEFC91A02
:100EE400D90AE90A0E94A107F6018491E7FC8081EE
:0C0EF4008111F4CFEF90DF90CF900895B3
:100F0000EC010E94B1070E94B007CE010E94B20717
:060F1000CE010E94AE07B5
:0C0F1600EE0FFF1F0590F491E02D0994F0
:080F220040E00E94570308950E
:080F2A0041E00E945703089505
:080F320041E00E94C70308958D
:080F3A0040E00E94C703089586
:080F42005D9BFECF8CB9089500
:080F4A005F9BFECF8CB10895FE
:060F52000E94370408951F
:040F58000C940000F5
:040F5C000E94C4002B
:020F60000895F2
:020F62000895F0
:020F64000895EE
:010F660096F4
:010F67003752
:00000001FF
