:100000000C9499000C9432070C9432070C9432072C
:100010000C9432070C9432070C9432070C9432077C
:100020000C9432070C9432070C9432070C9432076C
:100030000C9432070C9432070C9432070C9432075C
:100040000C9432070C9432070C9432070C9432074C
:100050000C943207E402FD0216032F034703470303
:100060004703470347034703470347034703470340
:100070004703470347034703470347034703470330
:100080004703470347034703470347034703470320
:1000900047034703E402FD0216032F0354036D03D5
:1000A00086039F03B703B703B703B703B703B703C9
:1000B000B703B703B703B703B703B703B703B70370
:1000C000B703B703B703B703B703B703B703B70360
:1000D000B703B703B703B703B703B70354036D03FD
:1000E00086039F03C703DC03F10306041A041A0402
:1000F0001A041A041A041A041A041A041A041A0410
:100100001A041A041A041A041A041A041A041A04FF
:100110001A041A041A041A041A041A041A041A04EF
:100120001A041A04C703DC03F10306040060006626
:10013000800011241FBECFE5D8E0DEBFCDBFECE2CA
:10014000F1E041E017C0B591A59135912591059158
:1001500007FD0CC095918591EF01F92FE82F0590CF
:100160000D92A217B307D9F7FE0104C01D92A21782
:10017000B307E1F7E133F40731F70E94F5000C947F
:06018000FD06F894FFCF1C
:10018600730D0A005B44454255475D205541525464
:1001960020496E697469616C697A656420403936F4
:1001A60030300D0A004F4B3A460D0A004F4B3A428B
:1001B6000D0A004F4B3A500D0A004F4B3A530D0AA9
:1001C600004F4B3A4E0D0A004F4B3A310D0A004F85
:1001D6004B3A320D0A004F4B3A330D0A004F4B3A59
:0401E6004B0D0A00B3
:1001EA00C0E0D0E006C041E06C2F81E40E94D80252
:1001FA002196C830D105BCF363E084E40E94170756
:10020A0064E084E40E94170765E084E40E9417070B
:10021A0066E084E40E94170760E083E40E941B07FB
:10022A0067E083E40E941B0760E083E40E941F07E3
:10023A002FEF84E39CE0215080409040E1F700C01A
:10024A00000060E083E40E94230760E875E280E032
:10025A0090E00E940A066AE871E080E00E94A10626
:10026A000E942B078A30E1F38D30D1F3863441F4B2
:10027A006BEA71E080E00E94A1060E94CC06F0CFF2
:10028A00823441F462EB71E080E00E94A1060E9490
:10029A00B706E6CF8035A9F569EB71E080E00E94E8
:1002AA00A1060E942B07863441F46BEA71E080E0D4
:1002BA000E94A1060E94CC06D3CF823441F462EB9D
:1002CA0071E080E00E94A1060E94B706C9CF83357B
:1002DA0089F40E94B1052FEF89EF90E02150804008
:1002EA009040E1F700C0000060EC71E080E00E94FD
:1002FA00A106B6CF8A30A9F28D3099F20E94840500
:10030A00D0CF8E34A9F567EC71E080E00E94A10697
:10031A000E942B07863441F46BEA71E080E00E9468
:10032A00A1060E94CC069CCF823441F462EB71E0B4
:10033A0080E00E94A1060E94B70692CF833589F415
:10034A000E94B1052FEF89EF90E021508040904044
:10035A00E1F700C0000060EC71E080E00E94A106B5
:10036A007FCF8A30A9F28D3099F20E945705D0CFFB
:10037A00833589F40E94B1052FEF89EF90E021506F
:10038A0080409040E1F700C0000060EC71E080E03E
:10039A000E94A10665CF9FEC980F933008F03FC0EA
:1003AA00082F10E001531109813331F46EEC71E02A
:1003BA0080E00E94A1060DC0823331F465ED71E040
:1003CA0080E00E94A10605C06CED71E080E00E9409
:1003DA00A1060E94EF06C0E0D0E00E941E04019729
:1003EA00E1F7C017D10754F40E94760421968FE5ED
:1003FA009AEE0197F1F700C00000EFCF0E94B10515
:10040A009FEF29EF80E0915020408040E1F700C043
:10041A00000066E871E080E00E94A10621CF8835DD
:10042A0009F01ECF63EE71E080E00E94A10667E04A
:10043A0083E40E941F079FEF23ED80E39150204041
:10044A008040E1F700C0000067E083E40E942307D0
:02045A0007CFCA
:10045C00CF93DF9300D000D0CDB7DEB79E012C5FD9
:10046C003F4FAE014D5F5F4FBE016E5F7F4FCE01C0
:10047C0001960E94DE0589818130D1F49A819130F8
:10048C00B9F4809164008F5F80936400823058F0DF
:10049C001092640010926200109265000E94B105E7
:1004AC0081E090E078C00E94A30480E090E073C0EB
:1004BC0010926400813079F49A8191110CC08FEF05
:1004CC008093650010926200109261000E94D0042B
:1004DC0080E090E060C081110EC08A81813059F4B7
:1004EC008093650010926200109261000E94FD04DE
:1004FC0080E090E050C0809162008F5F809362003A
:10050C008035A8F48091650088232CF40E94D004D7
:10051C0080E090E040C018162CF40E94FD0480E0AE
:10052C0090E039C00E94A30480E090E034C0809138
:10053C0060008F5F80936000883270F010926000D2
:10054C00809161008F5F80936100873028F00E945A
:10055C00A30480E090E01FC08091610080FD0EC07C
:10056C008091650088232CF00E94FD0480E090E0CF
:10057C0012C00E94D00480E090E00DC08091650014
:10058C0088232CF00E94D00480E090E004C00E94EC
:10059C00FD0480E090E00F900F900F900F90DF9192
:0405AC00CF9108954E
:1005B00090E0FC01E154F109E432F10508F067C074
:1005C000E65DFF4F0C941107413059F42AB381E0E6
:1005D00090E002C0880F991F6A95E2F7822B8ABBD0
:1005E00008952AB381E090E002C0880F991F6A95B0
:1005F000E2F7809582238ABB0895413059F427B3EE
:1006000081E090E002C0880F991F6A95E2F7822B83
:1006100087BB089527B381E090E002C0880F991F3F
:100620006A95E2F78095822387BB0895413059F49B
:1006300024B381E090E002C0880F991F6A95E2F729
:10064000822B84BB089524B381E090E002C0880F20
:10065000991F6A95E2F78095822384BB0895413003
:1006600059F421B381E090E002C0880F991F6A9588
:10067000E2F7822B81BB089521B381E090E002C0B4
:10068000880F991F6A95E2F78095822381BB0895B0
:1006900090E0FC01E154F109E432F10508F067C093
:1006A000E25BFF4F0C941107413059F42BB381E00A
:1006B00090E002C0880F991F6A95E2F7822B8BBBEE
:1006C00008952BB381E090E002C0880F991F6A95CE
:1006D000E2F7809582238BBB0895413059F428B30B
:1006E00081E090E002C0880F991F6A95E2F7822BA3
:1006F00088BB089528B381E090E002C0880F991F5D
:100700006A95E2F78095822388BB0895413059F4B9
:1007100025B381E090E002C0880F991F6A95E2F747
:10072000822B85BB089525B381E090E002C0880F3D
:10073000991F6A95E2F78095822385BB0895413021
:1007400059F422B381E090E002C0880F991F6A95A6
:10075000E2F7822B82BB089522B381E090E002C0D1
:10076000880F991F6A95E2F78095822382BB0895CE
:100770000F931F93082F10E0F801E154F109E432C0
:10078000F10508F057C0EE58FF4F0C94110749B31C
:1007900081E090E09C01062E02C0220F331F0A94D4
:1007A000E2F7842F90E08223932302C096958795E9
:1007B0006A95E2F7982F3EC046B381E090E09C0135
:1007C000062E02C0220F331F0A94E2F7842F90E016
:1007D0008223932302C0969587956A95E2F7982F16
:1007E00029C043B381E090E09C01062E02C0220F95
:1007F000331F0A94E2F7842F90E08223932302C0F0
:10080000969587956A95E2F7982F14C040B381E0DA
:1008100090E09C01062E02C0220F331F0A94E2F7DB
:10082000842F90E08223932302C0969587956A9542
:0C083000E2F7982F892F1F910F91089577
:10083C00CF93DF9300D000D0CDB7DEB79E012C5FF5
:10084C003F4FAE014D5F5F4FBE016E5F7F4FCE01DC
:10085C0001960E94DE0589818130B1F48A81813054
:10086C0099F4809163008F5F80936300823038F03D
:10087C00109263000E94B10581E090E02AC00E94B2
:10088C002A0580E090E025C0109263008B818130B6
:10089C0041F49C81911105C00E94D00480E090E04D
:1008AC0018C0811108C09C81913029F40E94FD046C
:1008BC0080E090E00EC0813041F48C81813029F4CD
:1008CC000E942A0580E090E004C00E942A0580E086
:1008DC0090E00F900F900F900F90DF91CF910895B3
:1008EC001F93CF93DF930E942A052FEF8DEE92E09A
:1008FC00215080409040E1F700C00000C0E9D1E0F9
:10090C0016C063E084E40E944E06182F64E084E471
:10091C000E944E06113069F4813059F40E942A0568
:10092C008FE097E20197F1F700C000002597209720
:0A093C0041F7DF91CF911F9108955C
:1009460040E060E081E40E94480341E061E081E428
:100956000E94480340E062E081E40E94480341E0CF
:1009660063E081E40E94480340E064E081E40E9481
:10097600480341E065E081E40E94480340E066E008
:1009860081E40E94480341E067E081E40E94480355
:0A0996006CE38CE30E94080708954B
:1009A00040E060E081E40E94480341E061E081E4CE
:1009B0000E94480340E062E081E40E94480341E075
:1009C00063E081E40E94480340E064E081E40E9427
:1009D000480341E065E081E40E94480340E066E0AE
:1009E00081E40E94480341E067E081E40E944803FB
:0A09F00061E483E20E940807089505
:1009FA0040E060E081E40E94480341E061E081E474
:100A0A000E94480340E062E081E40E94480341E01A
:100A1A0063E081E40E94480340E064E081E40E94CC
:100A2A00480341E065E081E40E94480340E066E053
:100A3A0081E40E94480341E067E081E40E944803A0
:0A0A4A0063E281E40E9408070895AA
:100A540041E060E081E40E94480340E061E081E419
:100A64000E94480341E062E081E40E94480340E0C0
:100A740063E081E40E94480341E064E081E40E9471
:100A8400480340E065E081E40E94480341E066E0F9
:100A940081E40E94480340E067E081E40E94480347
:0A0AA4006CE38CE30E94080708953C
:100AAE0041E060E081E40E94480340E061E081E4BF
:100ABE000E94480341E062E081E40E94480340E066
:100ACE0063E081E40E94480340E064E081E40E9418
:100ADE00480341E065E081E40E94480340E066E09F
:100AEE0081E40E94480341E067E081E40E944803EC
:0A0AFE006BE48BE40E9408070895E2
:100B080040E060E081E40E94480341E061E081E464
:100B18000E94480340E062E081E40E94480341E00B
:100B280063E081E40E94480341E064E081E40E94BC
:100B3800480340E065E081E40E94480341E066E044
:100B480081E40E94480340E067E081E40E94480392
:0A0B58006BE48BE40E940807089587
:100B620040E060E081E40E94480340E061E081E40B
:100B72000E94480340E062E081E40E94480340E0B2
:100B820063E081E40E94480340E064E081E40E9463
:100B9200480340E065E081E40E94480340E066E0EB
:100BA20081E40E94480340E067E081E40E94480338
:0A0BB20060E080E00E94080708954B
:100BBC00CF92DF92EF92FF920F931F93CF93DF931D
:100BCC006C017B018A01E90163E084E40E944E061A
:100BDC00F601808364E084E40E944E06F701808372
:100BEC0065E084E40E944E06F801808366E084E4AC
:100BFC000E944E068883DF91CF911F910F91FF9039
:080C0C00EF90DF90CF900895F6
:100C1400DC01CB01880F991FAA1FBB1F880F991FE6
:100C2400AA1FBB1F9C01AD01220F331F441F551F78
:100C340060E072E18AE790E00E942C0621503109BD
:100C440030BD29B98BB182608BB988E18AB986E855
:040C540080BD0895C2
:100C5800A1E21A2EAA1BBB1BFD010DC0AA1FBB1FB8
:100C6800EE1FFF1FA217B307E407F50720F0A21B2A
:100C7800B30BE40BF50B661F771F881F991F1A9497
:100C880069F760957095809590959B01AC01BD01C1
:040C9800CF010895EB
:100C9C000F931F93CF93DF93182FD62FC0E000E054
:100CAC000CC06D2F812F0E942F07813009F40F5F2C
:100CBC008AE68A95F1F700C0CF5FC53090F381E0EA
:100CCC00033008F480E0DF91CF911F910F910895CC
:100CDC0091B3906891BB95B5906495BD95B59860AE
:100CEC0095BD95B5916095BD95B5926095BD95B541
:100CFC00946095BD95B5906195BD95B5906295BD87
:060D0C00809583BD0895EF
:100D120097B3986097BB93B7906493BF93B798606B
:100D220093BF93B7916093BF93B7946093BF93B708
:100D3200906193BF93B7906293BF80958CBF0895E3
:100D4200CF92DF92EF926B01E82E06C09FEFC91A95
:100D5200D90AE90A0E942707F6018491E7FC8081FB
:0C0D62008111F4CFEF90DF90CF90089546
:100D6E000E94EF060E941E040197E1F72FEF89EF14
:100D7E0090E0215080409040E1F700C0000066E80E
:0A0D8E0071E080E00E94A1060895C4
:100D98000E94E1060E942E020197E1F72FEF89EFEA
:100DA80090E0215080409040E1F700C0000066E8E4
:0A0DB80071E080E00E94A10608959A
:100DC2000E94A3042FEF83EF91E0215080409040D6
:0C0DD200E1F700C0000080E090E0089510
:100DDE000E942A052FEF83EF91E021508040904032
:0C0DEE00E1F700C0000080E090E00895F4
:100DFA00EC010E9437070E943607CE010E9438078D
:060E0A00CE010E94340736
:100E1000CF93C62F0E9489068C2F0E946E06CF9119
:020E2000089533
:0C0E2200EE0FFF1F0590F491E02D0994E5
:080E2E0040E00E94D802089583
:080E360041E00E94D80208957A
:080E3E0041E00E944803089501
:080E460040E00E9448030895FA
:080E4E005D9BFECF8CB90895F5
:080E56005F9BFECF8CB10895F3
:060E5E000E94B803089594
:040E64000C940000EA
:040E68000E94C10023
:020E6C000895E7
:020E6E000895E5
:020E70000895E3
:00000001FF
