:100000000C949A000C941A060C941A060C941A0676
:100010000C941A060C941A060C941A060C941A06E0
:100020000C941A060C941A060C941A060C941A06D0
:100030000C941A060C941A060C941A060C941A06C0
:100040000C941A060C941A060C941A060C941A06B0
:100050000C941A0655026E028702A002B802B8027A
:10006000B802B802B802B802B802B802B802B802C0
:10007000B802B802B802B802B802B802B802B802B0
:10008000B802B802B802B802B802B802B802B802A0
:10009000B802B80255026E028702A002C502DE0253
:1000A000F702100328032803280328032803280342
:1000B00028032803280328032803280328032803E8
:1000C00028032803280328032803280328032803D8
:1000D000280328032803280328032803C502DE0277
:1000E000F702100338034D03620377038B038B037E
:1000F0008B038B038B038B038B038B038B038B0390
:100100008B038B038B038B038B038B038B038B037F
:100110008B038B038B038B038B038B038B038B036F
:100120008B038B0338034D03620377030060006287
:10013000000C420011241FBECFE5D8E0DEBFCDBFCA
:10014000ECE2F1E041E017C0B591A5913591259120
:10015000059107FD0CC095918591EF01F92FE82FCE
:1001600005900D92A217B307D9F7FE0104C01D92A6
:10017000A217B307E1F7E333F40731F70E94E80071
:080180000C94EE05F894FFCF8A
:100188005B44454255475D205541525420496E69AC
:100198007469616C697A65642040393630300D0ABB
:1001A800004F4B3A460D0A00730D0A004F4B3A4276
:1001B8000D0A004F4B3A500D0A004F4B3A4E0D0AAC
:0801C800004F4B3A530D0A00F1
:1001D000C0E0D0E006C041E06C2F81E40E944902FB
:1001E0002196C830D105BCF365E084E40E94FF0588
:1001F00066E084E40E94FF0560E083E40E94030659
:1002000060E083E40E9407062FEF89E698E1215021
:1002100080409040E1F700C0000060E083E40E946D
:100220000B0660E875E280E090E00E94600568E8F7
:1002300071E080E00E94BC050E941306863489F5B7
:1002400069EA71E080E00E94BC050E94D2052FE7B8
:1002500088E391E0215080409040E1F700C0000029
:1002600065E084E40E941706C82F66E084E40E94DB
:100270001706C13099F4813089F40E94A3042FE756
:1002800088E391E0215080409040E1F700C00000F9
:1002900060EB71E080E00E94BC05CECF0E94E404D8
:1002A000DFCF823489F564EB71E080E00E94BC0509
:1002B0000E94E0052FE788E391E0215080409040C4
:1002C000E1F700C0000065E084E40E941706C82F33
:1002D00066E084E40E941706C13099F4813089F405
:1002E0000E94A3042FE788E391E0215080409040D2
:1002F000E1F700C0000060EB71E080E00E94BC0507
:100300009BCF0E942205DFCF803509F05AC06BEBEE
:1003100071E080E00E94BC050E941306863431F52E
:1003200069EA71E080E00E94BC0565E084E40E9417
:100330001706C82F66E084E40E941706C13099F4BE
:10034000813089F40E94A3042FE788E391E02150D3
:1003500080409040E1F700C0000060EB71E080E079
:100360000E94BC0569CF0E94E404DFCF823431F5DE
:1003700064EB71E080E00E94BC0565E084E40E94CB
:100380001706C82F66E084E40E941706C13099F46E
:10039000813089F40E94A3042FE788E391E0215083
:1003A00080409040E1F700C0000060EB71E080E029
:1003B0000E94BC0541CF0E942205DFCF0E94190494
:1003C000ABCF8E3409F05AC062EC71E080E00E943D
:1003D000BC050E941306863431F569EA71E080E0BD
:1003E0000E94BC0565E084E40E941706C82F66E001
:1003F00084E40E941706C13099F4813089F40E9488
:10040000A3042FE788E391E0215080409040E1F77A
:1004100000C0000060EB71E080E00E94BC050CCFE2
:100420000E94E404DFCF823431F564EB71E080E0B8
:100430000E94BC0565E084E40E941706C82F66E0B0
:1004400084E40E941706C13099F4813089F40E9437
:10045000A3042FE788E391E0215080409040E1F72A
:1004600000C0000060EB71E080E00E94BC05E4CEBB
:100470000E942205DFCF0E945E04ABCF833509F0D6
:10048000DBCE69EC71E080E00E94BC050E94A30411
:02049000D3CEC9
:1004920090E0FC01E154F109E432F10508F067C093
:1004A200E65DFF4F0C94F905413059F42AB381E01F
:1004B20090E002C0880F991F6A95E2F7822B8ABBEF
:1004C20008952AB381E090E002C0880F991F6A95CF
:1004D200E2F7809582238ABB0895413059F427B30D
:1004E20081E090E002C0880F991F6A95E2F7822BA3
:1004F20087BB089527B381E090E002C0880F991F5F
:100502006A95E2F78095822387BB0895413059F4BA
:1005120024B381E090E002C0880F991F6A95E2F748
:10052200822B84BB089524B381E090E002C0880F3F
:10053200991F6A95E2F78095822384BB0895413022
:1005420059F421B381E090E002C0880F991F6A95A7
:10055200E2F7822B81BB089521B381E090E002C0D3
:10056200880F991F6A95E2F78095822381BB0895CF
:1005720090E0FC01E154F109E432F10508F067C0B2
:10058200E25BFF4F0C94F905413059F42BB381E043
:1005920090E002C0880F991F6A95E2F7822B8BBB0D
:1005A20008952BB381E090E002C0880F991F6A95ED
:1005B200E2F7809582238BBB0895413059F428B32A
:1005C20081E090E002C0880F991F6A95E2F7822BC2
:1005D20088BB089528B381E090E002C0880F991F7C
:1005E2006A95E2F78095822388BB0895413059F4D9
:1005F20025B381E090E002C0880F991F6A95E2F767
:10060200822B85BB089525B381E090E002C0880F5C
:10061200991F6A95E2F78095822385BB0895413040
:1006220059F422B381E090E002C0880F991F6A95C5
:10063200E2F7822B82BB089522B381E090E002C0F0
:10064200880F991F6A95E2F78095822382BB0895ED
:100652000F931F93082F10E0F801E154F109E432DF
:10066200F10508F057C0EE58FF4F0C94F90549B355
:1006720081E090E09C01062E02C0220F331F0A94F3
:10068200E2F7842F90E08223932302C09695879508
:100692006A95E2F7982F3EC046B381E090E09C0154
:1006A200062E02C0220F331F0A94E2F7842F90E035
:1006B2008223932302C0969587956A95E2F7982F35
:1006C20029C043B381E090E09C01062E02C0220FB4
:1006D200331F0A94E2F7842F90E08223932302C00F
:1006E200969587956A95E2F7982F14C040B381E0FA
:1006F20090E09C01062E02C0220F331F0A94E2F7FB
:10070200842F90E08223932302C0969587956A9561
:0C071200E2F7982F892F1F910F91089596
:10071E0040E050E060E070E081E490E00E94B902B9
:10072E0041E050E061E070E081E490E00E94B902A7
:10073E0040E050E062E070E081E490E00E94B90297
:10074E0041E050E063E070E081E490E00E94B90285
:10075E0040E050E064E070E081E490E00E94B90275
:10076E0041E050E065E070E081E490E00E94B90263
:10077E0040E050E066E070E081E490E00E94B90253
:10078E0041E050E067E070E081E490E00E94B90241
:0A079E00809161000E94A4050895F7
:1007A80041E050E060E070E081E490E00E94B9022E
:1007B80040E050E061E070E081E490E00E94B9021E
:1007C80041E050E062E070E081E490E00E94B9020C
:1007D80040E050E063E070E081E490E00E94B902FC
:1007E80041E050E064E070E081E490E00E94B902EA
:1007F80040E050E065E070E081E490E00E94B902DA
:1008080041E050E066E070E081E490E00E94B902C7
:1008180040E050E067E070E081E490E00E94B902B7
:0A082800809161000E94A40508956C
:1008320040E050E060E070E081E490E00E94B902A4
:1008420041E050E061E070E081E490E00E94B90292
:1008520040E050E062E070E081E490E00E94B90282
:1008620041E050E063E070E081E490E00E94B90270
:1008720041E050E064E070E081E490E00E94B9025F
:1008820040E050E065E070E081E490E00E94B9024F
:1008920041E050E066E070E081E490E00E94B9023D
:1008A20040E050E067E070E081E490E00E94B9022D
:0A08B200809160000E94A4050895E3
:1008BC0041E050E060E070E081E490E00E94B90219
:1008CC0040E050E061E070E081E490E00E94B90209
:1008DC0041E050E062E070E081E490E00E94B902F7
:1008EC0040E050E063E070E081E490E00E94B902E7
:1008FC0040E050E064E070E081E490E00E94B902D6
:10090C0041E050E065E070E081E490E00E94B902C3
:10091C0040E050E066E070E081E490E00E94B902B3
:10092C0041E050E067E070E081E490E00E94B902A1
:0A093C00809160000E94A405089558
:1009460040E050E060E070E081E490E00E94B9028F
:1009560040E050E061E070E081E490E00E94B9027E
:1009660040E050E062E070E081E490E00E94B9026D
:1009760040E050E063E070E081E490E00E94B9025C
:1009860040E050E064E070E081E490E00E94B9024B
:1009960040E050E065E070E081E490E00E94B9023A
:1009A60040E050E066E070E081E490E00E94B90229
:1009B60040E050E067E070E081E490E00E94B90218
:0209C600089592
:1009C800CF93DF9365E084E40E94FF0566E084E44A
:1009D8000E94FF0565E084E40E941706C82F66E0C0
:1009E80084E40E941706D82FC13029F4811103C06E
:1009F8000E945E0414C0C11105C0D13019F40E94D0
:100A080019040DC0C13029F4D13019F40E94A3048F
:100A180006C0C11104C0D11102C00E948F03C130A9
:100A280029F4D13031F080E090E005C080E090E01A
:0C0A380002C081E090E0DF91CF910895B2
:100A4400CF93DF9365E084E40E94FF0566E084E4CD
:100A54000E94FF0565E084E40E941706C82F66E043
:100A640084E40E941706D82FC11105C0813019F4FF
:100A74000E945E0414C0C13029F4D11103C00E9445
:100A840019040DC0C13029F4D13019F40E94A30413
:100A940006C0C11104C0D11102C00E94D403C130E8
:100AA40029F4D13031F080E090E005C080E090E09E
:0C0AB40002C081E090E0DF91CF91089536
:100AC000DC01CB01880F991FAA1FBB1F880F991F3C
:100AD000AA1FBB1F9C01AD01220F331F441F551FCE
:100AE00060E072E18AE790E00E94820521503109BE
:100AF00030BD29B98BB182608BB988E18AB986E8AB
:040B000080BD089517
:100B0400A1E21A2EAA1BBB1BFD010DC0AA1FBB1F0D
:100B1400EE1FFF1FA217B307E407F50720F0A21B7F
:100B2400B30BE40BF50B661F771F881F991F1A94EC
:100B340069F760957095809590959B01AC01BD0116
:040B4400CF01089540
:100B480097B3986097BB93B7906493BF93B7986037
:100B580093BF93B7916093BF93B7946093BF93B7D4
:100B6800906193BF93B7906293BF80958CBF0895AF
:100B7800CF92DF92EF926B01E82E06C09FEFC91A61
:100B8800D90AE90A0E940F06F6018491E7FC8081E0
:0C0B98008111F4CFEF90DF90CF90089512
:100BA4000E948F032FEF84E39CE02150804090400B
:0C0BB400E1F700C000000E94A3040895B7
:100BC0000E94D4032FE78AE196E0215080409040B4
:0C0BD000E1F700C000000E94A30408959B
:100BDC00EC010E941F060E941E06CE010E942006F8
:060BEC00CE010E941C0670
:0C0BF200EE0FFF1F0590F491E02D099418
:080BFE0040E00E944902089545
:080C060041E00E94490208953B
:080C0E0041E00E94B9020895C3
:080C160040E00E94B9020895BC
:080C1E005D9BFECF8CB9089527
:080C26005F9BFECF8CB1089525
:060C2E000E942903089555
:040C34000C9400001C
:040C38000E94C20054
:020C3C00089519
:020C3E00089517
:020C4000089515
:010C4200961B
:010C43004B65
:00000001FF
