:100000000C9496000C94C5030C94C5030C94C50382
:100010000C94C5030C94C5030C94C5030C94C50340
:100020000C94C5030C94C5030C94C5030C94C50330
:100030000C94C5030C94C5030C94C5030C94C50320
:100040000C94C5030C94C5030C94C5030C94C50310
:100050000C94C50322013B0154016D01850185010A
:100060008501850185018501850185018501850160
:100070008501850185018501850185018501850150
:100080008501850185018501850185018501850140
:100090008501850122013B0154016D019201AB01F3
:1000A000C401DD01F501F501F501F501F501F501E9
:1000B000F501F501F501F501F501F501F501F50190
:1000C000F501F501F501F501F501F501F501F50180
:1000D000F501F501F501F501F501F5019201AB011D
:1000E000C401DD0105021A022F024402580258021F
:1000F0005802580258025802580258025802580230
:10010000580258025802580258025802580258021F
:10011000580258025802580258025802580258020F
:100120005802580205021A022F02440211241FBE6F
:10013000CFE5D8E0DEBFCDBF0E94A2000C94A103A2
:04014000F894FFCF61
:1001440041E060E081E40E94160141E061E081E465
:100154000E94160141E062E081E40E94160141E040
:1001640063E081E40E94160141E064E081E40E94BE
:10017400160141E065E081E40E94160141E066E079
:1001840081E40E94160141E067E081E40E941601C7
:1001940067E084E40E94B60367E084E40E94BA0343
:1001A4002FEF89E698E1215080409040E1F700C0AC
:1001B400000067E084E40E94BE0367E084E40E94D8
:1001C400B20360E083E40E94B20361E083E40E942E
:1001D400B20367E083E40E94B20367E084E40E9410
:1001E400C203813019F40E945C02F7CF60E083E41B
:1001F4000E94C203813019F40E949D02EECF61E097
:1002040083E40E94C203813019F40E94DE02E5CF28
:1002140067E083E40E94C203813019F40E941F0343
:08022400DCCF0E946003D9CF7A
:10022C0090E0FC01E154F109E432F10508F067C0FB
:10023C00E65DFF4F0C94AC03413059F42AB381E0D6
:10024C0090E002C0880F991F6A95E2F7822B8ABB57
:10025C0008952AB381E090E002C0880F991F6A9537
:10026C00E2F7809582238ABB0895413059F427B375
:10027C0081E090E002C0880F991F6A95E2F7822B0B
:10028C0087BB089527B381E090E002C0880F991FC7
:10029C006A95E2F78095822387BB0895413059F423
:1002AC0024B381E090E002C0880F991F6A95E2F7B1
:1002BC00822B84BB089524B381E090E002C0880FA8
:1002CC00991F6A95E2F78095822384BB089541308B
:1002DC0059F421B381E090E002C0880F991F6A9510
:1002EC00E2F7822B81BB089521B381E090E002C03C
:1002FC00880F991F6A95E2F78095822381BB089538
:10030C0090E0FC01E154F109E432F10508F067C01A
:10031C00E25BFF4F0C94AC03413059F42BB381E0FA
:10032C0090E002C0880F991F6A95E2F7822B8BBB75
:10033C0008952BB381E090E002C0880F991F6A9555
:10034C00E2F7809582238BBB0895413059F428B392
:10035C0081E090E002C0880F991F6A95E2F7822B2A
:10036C0088BB089528B381E090E002C0880F991FE4
:10037C006A95E2F78095822388BB0895413059F441
:10038C0025B381E090E002C0880F991F6A95E2F7CF
:10039C00822B85BB089525B381E090E002C0880FC5
:1003AC00991F6A95E2F78095822385BB08954130A9
:1003BC0059F422B381E090E002C0880F991F6A952E
:1003CC00E2F7822B82BB089522B381E090E002C059
:1003DC00880F991F6A95E2F78095822382BB089556
:1003EC000F931F93082F10E0F801E154F109E43248
:1003FC00F10508F057C0EE58FF4F0C94AC0349B30D
:10040C0081E090E09C01062E02C0220F331F0A945B
:10041C00E2F7842F90E08223932302C09695879570
:10042C006A95E2F7982F3EC046B381E090E09C01BC
:10043C00062E02C0220F331F0A94E2F7842F90E09D
:10044C008223932302C0969587956A95E2F7982F9D
:10045C0029C043B381E090E09C01062E02C0220F1C
:10046C00331F0A94E2F7842F90E08223932302C077
:10047C00969587956A95E2F7982F14C040B381E062
:10048C0090E09C01062E02C0220F331F0A94E2F763
:10049C00842F90E08223932302C0969587956A95CA
:0C04AC00E2F7982F892F1F910F910895FF
:1004B80040E050E060E070E081E490E00E94860156
:1004C80041E050E061E070E081E490E00E94860144
:1004D80040E050E062E070E081E490E00E94860134
:1004E80041E050E063E070E081E490E00E94860122
:1004F80040E050E064E070E081E490E00E94860112
:1005080041E050E065E070E081E490E00E948601FF
:1005180040E050E066E070E081E490E00E948601EF
:1005280041E050E067E070E081E490E00E948601DD
:02053800089524
:10053A0041E050E060E070E081E490E00E948601D2
:10054A0040E050E061E070E081E490E00E948601C2
:10055A0041E050E062E070E081E490E00E948601B0
:10056A0040E050E063E070E081E490E00E948601A0
:10057A0041E050E064E070E081E490E00E9486018E
:10058A0040E050E065E070E081E490E00E9486017E
:10059A0041E050E066E070E081E490E00E9486016C
:1005AA0040E050E067E070E081E490E00E9486015C
:0205BA000895A2
:1005BC0040E050E060E070E081E490E00E94860151
:1005CC0041E050E061E070E081E490E00E9486013F
:1005DC0040E050E062E070E081E490E00E9486012F
:1005EC0041E050E063E070E081E490E00E9486011D
:1005FC0041E050E064E070E081E490E00E9486010C
:10060C0040E050E065E070E081E490E00E948601FB
:10061C0041E050E066E070E081E490E00E948601E9
:10062C0040E050E067E070E081E490E00E948601D9
:02063C0008951F
:10063E0041E050E060E070E081E490E00E948601CD
:10064E0040E050E061E070E081E490E00E948601BD
:10065E0041E050E062E070E081E490E00E948601AB
:10066E0040E050E063E070E081E490E00E9486019B
:10067E0040E050E064E070E081E490E00E9486018A
:10068E0041E050E065E070E081E490E00E94860178
:10069E0040E050E066E070E081E490E00E94860168
:1006AE0041E050E067E070E081E490E00E94860156
:0206BE0008959D
:1006C00040E050E060E070E081E490E00E9486014C
:1006D00040E050E061E070E081E490E00E9486013B
:1006E00040E050E062E070E081E490E00E9486012A
:1006F00040E050E063E070E081E490E00E94860119
:1007000040E050E064E070E081E490E00E94860107
:1007100040E050E065E070E081E490E00E948601F6
:1007200040E050E066E070E081E490E00E948601E5
:1007300040E050E067E070E081E490E00E948601D4
:0207400008951A
:10074200EC010E94CA030E94C903CE010E94CB039E
:06075200CE010E94C70366
:0C075800EE0FFF1F0590F491E02D0994B6
:0807640040E00E941601089517
:08076C0041E00E94160108950E
:0807740041E00E948601089596
:08077C0040E00E94860108958F
:060784000E94F601089539
:04078A000C940000CB
:04078E000E94A00025
:020792000895C8
:020794000895C6
:020796000895C4
:00000001FF
