:100000000C949A000C942A070C942A070C942A0743
:100010000C942A070C942A070C942A070C942A079C
:100020000C942A070C942A070C942A070C942A078C
:100030000C942A070C942A070C942A070C942A077C
:100040000C942A070C942A070C942A070C942A076C
:100050000C942A0765037E039703B003C803C80303
:10006000C803C803C803C803C803C803C803C80338
:10007000C803C803C803C803C803C803C803C80328
:10008000C803C803C803C803C803C803C803C80318
:10009000C803C80365037E039703B003D503EE03CB
:1000A00007042004380438043804380438043804B9
:1000B0003804380438043804380438043804380460
:1000C0003804380438043804380438043804380450
:1000D000380438043804380438043804D503EE03EF
:1000E0000704200448045D04720487049B049B04F5
:1000F0009B049B049B049B049B049B049B049B0408
:100100009B049B049B049B049B049B049B049B04F7
:100110009B049B049B049B049B049B049B049B04E7
:100120009B049B0448045D04720487040060006221
:10013000000E620011241FBECFE5D8E0DEBFCDBFA8
:10014000ECE2F1E041E017C0B591A5913591259120
:10015000059107FD0CC095918591EF01F92FE82FCE
:1001600005900D92A217B307D9F7FE0104C01D92A6
:10017000A217B307E1F7E333F40731F70E94F60063
:080180000C94FE06F894FFCF79
:100188005B44454255475D205541525420496E69AC
:100198007469616C697A65642040393630300D0ABB
:1001A800004F4B3A460D0A00730D0A004F4B3A4276
:1001B8000D0A004F4B3A500D0A004F4B3A530D0AA7
:1001C800004F4B3A4E0D0A004F4B3A310D0A004F83
:1001D8004B3A320D0A004F4B3A330D0A004F4B3A57
:0401E8004B0D0A00B1
:1001EC0000E010E007C041E0602F81E40E94590359
:1001FC000F5F1F4F08301105B4F363E084E40E94D5
:10020C000F0764E084E40E940F0760E083E40E941F
:10021C00130767E083E40E94130760E083E40E9405
:10022C0017072FEF89E698E1215080409040E1F7C5
:10023C0000C0000060E083E40E941B0760E875E2E8
:10024C0080E090E00E94700668E871E080E00E9417
:10025C00CC060E942307863489F569EA71E080E0B8
:10026C000E94CC060E94E2062FE788E391E0215021
:10027C0080409040E1F700C0000063E084E40E94FD
:10028C002707C82F64E084E40E942707C13099F443
:10029C00813089F40E94B3052FE788E391E0215067
:1002AC0080409040E1F700C0000060EB71E080E01E
:1002BC000E94CC06CECF0E94F405DFCF823489F5A4
:1002CC0064EB71E080E00E94CC060E94F0062FE700
:1002DC0088E391E0215080409040E1F700C000009D
:1002EC0063E084E40E942707C82F64E084E40E9442
:1002FC002707C13099F4813089F40E94B3052FE7A8
:10030C0088E391E0215080409040E1F700C000006C
:10031C0060EB71E080E00E94CC069BCF0E9432061D
:10032C00DFCF803509F083C06BEB71E080E00E9479
:10033C00CC060E942307863489F569EA71E080E0D7
:10034C000E94CC060E94E2062FE789EA93E0215036
:10035C0080409040E1F700C0000063E084E40E941C
:10036C002707C82F64E084E40E942707C13099F462
:10037C00813089F40E94B3052FE788E391E0215086
:10038C0080409040E1F700C0000060EB71E080E03D
:10039C000E94CC065ECF0E94F405DFCF823489F533
:1003AC0064EB71E080E00E94CC060E94F0062FE71F
:1003BC0089EA93E0215080409040E1F700C00000B2
:1003CC0063E084E40E942707C82F64E084E40E9461
:1003DC002707C13099F4813089F40E94B3052FE7C7
:1003EC0088E391E0215080409040E1F700C000008C
:1003FC0060EB71E080E00E94CC062BCF0E943206AD
:10040C00DFCF833589F40E94B3052FE788E391E0B1
:10041C00215080409040E1F700C0000062EC71E098
:10042C0080E00E94CC0615CF0E94290582CF8E3425
:10043C0009F08CC069EC71E080E00E94CC060E944F
:10044C0023078634D1F569EA71E080E00E94CC067E
:10045C000E94E2062FE788E391E021508040904013
:10046C00E1F700C0000001E010E00130110521F4BB
:10047C000E94E20600E010E063E084E40E9427079B
:10048C00C82F64E084E40E942707C13099F48130BE
:10049C0089F40E94B3052FE788E391E02150804056
:1004AC009040E1F700C0000060EB71E080E00E943A
:1004BC00CC06CFCE0E94F405D8CF823489F564EBFC
:1004CC0071E080E00E94CC060E94F0062FE788E3E2
:1004DC0091E0215080409040E1F700C0000063E0C3
:1004EC0084E40E942707C82F64E084E40E94270755
:1004FC00C13099F4813089F40E94B3052FE788E369
:10050C0091E0215080409040E1F700C0000060EB8A
:10051C0071E080E00E94CC069CCE0E943206DFCFB8
:10052C00833589F40E94B3052FE788E391E02150CD
:10053C0080409040E1F700C0000062EC71E080E088
:10054C000E94CC0686CE0E946E0579CF833541F48D
:10055C0062EC71E080E00E94CC060E94B30579CE7B
:10056C008A3009F476CE8D3009F473CE9FEC980F57
:10057C00933008F07EC0813339F0823341F08333FD
:10058C0051F0E12CF12C0BC0E12CF12C08C0EE2425
:10059C00E394F12C04C06894EE24E1F8F12C81333F
:1005AC0031F460ED71E080E00E94CC060DC0823326
:1005BC0031F467ED71E080E00E94CC0605C06EED71
:1005CC0071E080E00E94CC060E94F0062FEF83EFD2
:1005DC0091E0215080409040E1F700C0000000E025
:1005EC0010E063E084E40E942707C82F64E084E4F1
:1005FC000E942707C130D1F58130C1F50E151F05BA
:10060C0024F50E94F0062FEF8DEE92E021508040F1
:10061C009040E1F700C0000063E084E40E942707EB
:10062C00C82F64E084E40E942707C13059F481305C
:10063C0049F40E94F0068FE19EE40197F1F700C0A7
:10064C000000EACF0F5F1F4FCCCF0E94B3059FE78E
:10065C0028E381E0915020408040E1F700C0000089
:10066C0060EB71E080E00E94CC06F3CD0E94320674
:10067C00B8CF883509F0EDCD65EE71E080E00E94D1
:10068C00CC0667E083E40E9417079FEF23ED80E31D
:10069C00915020408040E1F700C0000067E083E407
:0606AC000E941B07D6CDE1
:1006B20090E0FC01E154F109E432F10508F067C071
:1006C200E65DFF4F0C940907413059F42AB381E0EB
:1006D20090E002C0880F991F6A95E2F7822B8ABBCD
:1006E20008952AB381E090E002C0880F991F6A95AD
:1006F200E2F7809582238ABB0895413059F427B3EB
:1007020081E090E002C0880F991F6A95E2F7822B80
:1007120087BB089527B381E090E002C0880F991F3C
:100722006A95E2F78095822387BB0895413059F498
:1007320024B381E090E002C0880F991F6A95E2F726
:10074200822B84BB089524B381E090E002C0880F1D
:10075200991F6A95E2F78095822384BB0895413000
:1007620059F421B381E090E002C0880F991F6A9585
:10077200E2F7822B81BB089521B381E090E002C0B1
:10078200880F991F6A95E2F78095822381BB0895AD
:1007920090E0FC01E154F109E432F10508F067C090
:1007A200E25BFF4F0C940907413059F42BB381E00F
:1007B20090E002C0880F991F6A95E2F7822B8BBBEB
:1007C20008952BB381E090E002C0880F991F6A95CB
:1007D200E2F7809582238BBB0895413059F428B308
:1007E20081E090E002C0880F991F6A95E2F7822BA0
:1007F20088BB089528B381E090E002C0880F991F5A
:100802006A95E2F78095822388BB0895413059F4B6
:1008120025B381E090E002C0880F991F6A95E2F744
:10082200822B85BB089525B381E090E002C0880F3A
:10083200991F6A95E2F78095822385BB089541301E
:1008420059F422B381E090E002C0880F991F6A95A3
:10085200E2F7822B82BB089522B381E090E002C0CE
:10086200880F991F6A95E2F78095822382BB0895CB
:100872000F931F93082F10E0F801E154F109E432BD
:10088200F10508F057C0EE58FF4F0C94090749B321
:1008920081E090E09C01062E02C0220F331F0A94D1
:1008A200E2F7842F90E08223932302C096958795E6
:1008B2006A95E2F7982F3EC046B381E090E09C0132
:1008C200062E02C0220F331F0A94E2F7842F90E013
:1008D2008223932302C0969587956A95E2F7982F13
:1008E20029C043B381E090E09C01062E02C0220F92
:1008F200331F0A94E2F7842F90E08223932302C0ED
:10090200969587956A95E2F7982F14C040B381E0D7
:1009120090E09C01062E02C0220F331F0A94E2F7D8
:10092200842F90E08223932302C0969587956A953F
:0C093200E2F7982F892F1F910F91089574
:10093E0040E050E060E070E081E490E00E94C90386
:10094E0041E050E061E070E081E490E00E94C90374
:10095E0040E050E062E070E081E490E00E94C90364
:10096E0041E050E063E070E081E490E00E94C90352
:10097E0040E050E064E070E081E490E00E94C90342
:10098E0041E050E065E070E081E490E00E94C90330
:10099E0040E050E066E070E081E490E00E94C90320
:1009AE0041E050E067E070E081E490E00E94C9030E
:0A09BE00809161000E94B4060895C4
:1009C80041E050E060E070E081E490E00E94C903FB
:1009D80040E050E061E070E081E490E00E94C903EB
:1009E80041E050E062E070E081E490E00E94C903D9
:1009F80040E050E063E070E081E490E00E94C903C9
:100A080041E050E064E070E081E490E00E94C903B6
:100A180040E050E065E070E081E490E00E94C903A6
:100A280041E050E066E070E081E490E00E94C90394
:100A380040E050E067E070E081E490E00E94C90384
:0A0A4800809161000E94B406089539
:100A520040E050E060E070E081E490E00E94C90371
:100A620041E050E061E070E081E490E00E94C9035F
:100A720040E050E062E070E081E490E00E94C9034F
:100A820041E050E063E070E081E490E00E94C9033D
:100A920041E050E064E070E081E490E00E94C9032C
:100AA20040E050E065E070E081E490E00E94C9031C
:100AB20041E050E066E070E081E490E00E94C9030A
:100AC20040E050E067E070E081E490E00E94C903FA
:0A0AD200809160000E94B4060895B0
:100ADC0041E050E060E070E081E490E00E94C903E6
:100AEC0040E050E061E070E081E490E00E94C903D6
:100AFC0041E050E062E070E081E490E00E94C903C4
:100B0C0040E050E063E070E081E490E00E94C903B3
:100B1C0040E050E064E070E081E490E00E94C903A2
:100B2C0041E050E065E070E081E490E00E94C90390
:100B3C0040E050E066E070E081E490E00E94C90380
:100B4C0041E050E067E070E081E490E00E94C9036E
:0A0B5C00809160000E94B406089525
:100B660040E050E060E070E081E490E00E94C9035C
:100B760040E050E061E070E081E490E00E94C9034B
:100B860040E050E062E070E081E490E00E94C9033A
:100B960040E050E063E070E081E490E00E94C90329
:100BA60040E050E064E070E081E490E00E94C90318
:100BB60040E050E065E070E081E490E00E94C90307
:100BC60040E050E066E070E081E490E00E94C903F6
:100BD60040E050E067E070E081E490E00E94C903E5
:020BE600089570
:100BE800CF93DF9363E084E40E940F0764E084E41A
:100BF8000E940F0763E084E40E942707C82F64E07F
:100C080084E40E942707D82FC13029F4811103C03A
:100C18000E946E0514C0C11105C0D13019F40E949C
:100C280029050DC0C13029F4D13019F40E94B3054B
:100C380006C0C11104C0D11102C00E949F04C13076
:100C480029F4D13031F080E090E005C080E090E0F8
:0C0C580002C081E090E0DF91CF91089590
:100C6400CF93DF9363E084E40E940F0764E084E49D
:100C74000E940F0763E084E40E942707C82F64E002
:100C840084E40E942707D82FC13029F4811103C0BE
:100C94000E94290514C0C11105C0D13019F40E9465
:100CA4006E050DC0C13029F4D13019F40E94B3058A
:100CB40006C0C11104C0D11102C00E94E404C130B5
:100CC40029F4D13031F080E090E005C080E090E07C
:0C0CD40002C081E090E0DF91CF91089514
:100CE000DC01CB01880F991FAA1FBB1F880F991F1A
:100CF000AA1FBB1F9C01AD01220F331F441F551FAC
:100D000060E072E18AE790E00E949206215031098A
:100D100030BD29B98BB182608BB988E18AB986E888
:040D200080BD0895F5
:100D2400A1E21A2EAA1BBB1BFD010DC0AA1FBB1FEB
:100D3400EE1FFF1FA217B307E407F50720F0A21B5D
:100D4400B30BE40BF50B661F771F881F991F1A94CA
:100D540069F760957095809590959B01AC01BD01F4
:040D6400CF0108951E
:100D680097B3986097BB93B7906493BF93B7986015
:100D780093BF93B7916093BF93B7946093BF93B7B2
:100D8800906193BF93B7906293BF80958CBF08958D
:100D9800CF92DF92EF926B01E82E06C09FEFC91A3F
:100DA800D90AE90A0E941F07F6018491E7FC8081AD
:0C0DB8008111F4CFEF90DF90CF900895F0
:100DC4000E949F042FEF84E39CE0215080409040D8
:0C0DD400E1F700C000000E94B305089584
:100DE0000E94E4042FEF84E39CE021508040904077
:0C0DF000E1F700C000000E94B305089568
:100DFC00EC010E942F070E942E07CE010E943007A3
:060E0C00CE010E942C073C
:0C0E1200EE0FFF1F0590F491E02D0994F5
:080E1E0040E00E945903089511
:080E260041E00E945903089508
:080E2E0041E00E94C903089590
:080E360040E00E94C903089589
:080E3E005D9BFECF8CB9089505
:080E46005F9BFECF8CB1089503
:060E4E000E943904089522
:040E54000C940000FA
:040E58000E94C20032
:020E5C000895F7
:020E5E000895F5
:020E60000895F3
:010E620096F9
:010E63003757
:00000001FF
