:100000000C949A000C948C060C948C060C948C0620
:100010000C948C060C948C060C948C060C948C0618
:100020000C948C060C948C060C948C060C948C0608
:100030000C948C060C948C060C948C060C948C06F8
:100040000C948C060C948C060C948C060C948C06E8
:100050000C948C06C702E002F90212032A032A0359
:100060002A032A032A032A032A032A032A032A0328
:100070002A032A032A032A032A032A032A032A0318
:100080002A032A032A032A032A032A032A032A0308
:100090002A032A03C702E002F902120337035003BE
:1000A000690382039A039A039A039A039A039A03B1
:1000B0009A039A039A039A039A039A039A039A0358
:1000C0009A039A039A039A039A039A039A039A0348
:1000D0009A039A039A039A039A039A0337035003E5
:1000E00069038203AA03BF03D403E903FD03FD03ED
:1000F000FD03FD03FD03FD03FD03FD03FD03FD0300
:10010000FD03FD03FD03FD03FD03FD03FD03FD03EF
:10011000FD03FD03FD03FD03FD03FD03FD03FD03DF
:10012000FD03FD03AA03BF03D403E90300600062DB
:10013000000D260011241FBECFE5D8E0DEBFCDBFE5
:10014000ECE2F1E041E017C0B591A5913591259120
:10015000059107FD0CC095918591EF01F92FE82FCE
:1001600005900D92A217B307D9F7FE0104C01D92A6
:10017000A217B307E1F7E333F40731F70E94E80071
:080180000C946006F894FFCF17
:100188005B44454255475D205541525420496E69AC
:100198007469616C697A65642040393630300D0ABB
:1001A800004F4B3A460D0A00730D0A004F4B3A4276
:1001B8000D0A004F4B3A500D0A004F4B3A4E0D0AAC
:0801C800004F4B3A530D0A00F1
:1001D00000E010E007C041E0602F81E40E94BB0214
:1001E0000F5F1F4F08301105B4F365E084E40E94EF
:1001F000710666E084E40E94710660E083E40E9478
:10020000750660E083E40E9479062FEF89E698E1A5
:10021000215080409040E1F700C0000060E083E49E
:100220000E947D0660E875E280E090E00E94D205C1
:1002300068E871E080E00E942E060E948506863400
:1002400089F569EA71E080E00E942E060E9444066A
:100250002FE788E391E0215080409040E1F700C013
:10026000000065E084E40E948906C82F66E084E40B
:100270000E948906C13099F4813089F40E941505E5
:100280002FE788E391E0215080409040E1F700C0E3
:10029000000060EB71E080E00E942E06CECF0E944D
:1002A0005605DFCF823489F564EB71E080E00E946F
:1002B0002E060E9452062FE788E391E021508040ED
:1002C0009040E1F700C0000065E084E40E948906E8
:1002D000C82F66E084E40E948906C13099F4813019
:1002E00089F40E9415052FE788E391E021508040B2
:1002F0009040E1F700C0000060EB71E080E00E94F8
:100300002E069BCF0E949405DFCF803509F070C088
:100310006BEB71E080E00E942E060E948506863419
:1003200089F569EA71E080E00E942E060E94440689
:100330002FE789EA93E0215080409040E1F700C028
:10034000000065E084E40E948906C82F66E084E42A
:100350000E948906C13099F4813089F40E94150504
:100360002FE788E391E0215080409040E1F700C002
:10037000000060EB71E080E00E942E065ECF0E94DC
:100380005605DFCF823489F564EB71E080E00E948E
:100390002E060E9452062FE789EA93E02150804002
:1003A0009040E1F700C0000065E084E40E94890607
:1003B000C82F66E084E40E948906C13099F4813038
:1003C00089F40E9415052FE788E391E021508040D1
:1003D0009040E1F700C0000060EB71E080E00E9417
:1003E0002E062BCF0E949405DFCF0E948B0495CF61
:1003F0008E3409F072C062EC71E080E00E942E063B
:100400000E948506863499F569EA71E080E00E94D1
:100410002E060E9444062FE789EA93E0215080408F
:100420009040E1F700C000000E94440665E084E4CB
:100430000E948906C82F66E084E40E948906C130C4
:1004400099F4813089F40E9415052FE788E391E043
:10045000215080409040E1F700C0000060EB71E067
:1004600080E00E942E06E9CE0E945605DDCF823440
:1004700089F564EB71E080E00E942E060E9452062E
:100480002FE789EA93E0215080409040E1F700C0D7
:10049000000065E084E40E948906C82F66E084E4D9
:1004A0000E948906C13099F4813089F40E941505B3
:1004B0002FE788E391E0215080409040E1F700C0B1
:1004C000000060EB71E080E00E942E06B6CE0E9434
:1004D0009405DFCF0E94D00493CF833541F469ECBB
:1004E00071E080E00E942E060E941505A6CE8A309B
:1004F00009F4A3CE8D3009F4A0CE833309F09DCE4C
:1005000003E010E065E084E40E948906C82F66E0FD
:1005100084E40E948906C13059F5813049F565E0CF
:1005200084E40E948906C82F66E084E40E9489065C
:10053000C13011F4813019F00E94940517C00130C8
:10054000110589F40E9415052FE788E391E02150F9
:1005500080409040E1F700C0000060EB71E080E077
:100560000E942E0603C00E945206D9CF01501109E5
:060570000E949405C7CFB4
:1005760090E0FC01E154F109E432F10508F067C0AE
:10058600E65DFF4F0C946B06413059F42AB381E0C7
:1005960090E002C0880F991F6A95E2F7822B8ABB0A
:1005A60008952AB381E090E002C0880F991F6A95EA
:1005B600E2F7809582238ABB0895413059F427B328
:1005C60081E090E002C0880F991F6A95E2F7822BBE
:1005D60087BB089527B381E090E002C0880F991F7A
:1005E6006A95E2F78095822387BB0895413059F4D6
:1005F60024B381E090E002C0880F991F6A95E2F764
:10060600822B84BB089524B381E090E002C0880F5A
:10061600991F6A95E2F78095822384BB089541303D
:1006260059F421B381E090E002C0880F991F6A95C2
:10063600E2F7822B81BB089521B381E090E002C0EE
:10064600880F991F6A95E2F78095822381BB0895EA
:1006560090E0FC01E154F109E432F10508F067C0CD
:10066600E25BFF4F0C946B06413059F42BB381E0EB
:1006760090E002C0880F991F6A95E2F7822B8BBB28
:1006860008952BB381E090E002C0880F991F6A9508
:10069600E2F7809582238BBB0895413059F428B345
:1006A60081E090E002C0880F991F6A95E2F7822BDD
:1006B60088BB089528B381E090E002C0880F991F97
:1006C6006A95E2F78095822388BB0895413059F4F4
:1006D60025B381E090E002C0880F991F6A95E2F782
:1006E600822B85BB089525B381E090E002C0880F78
:1006F600991F6A95E2F78095822385BB089541305C
:1007060059F422B381E090E002C0880F991F6A95E0
:10071600E2F7822B82BB089522B381E090E002C00B
:10072600880F991F6A95E2F78095822382BB089508
:100736000F931F93082F10E0F801E154F109E432FA
:10074600F10508F057C0EE58FF4F0C946B0649B3FD
:1007560081E090E09C01062E02C0220F331F0A940E
:10076600E2F7842F90E08223932302C09695879523
:100776006A95E2F7982F3EC046B381E090E09C016F
:10078600062E02C0220F331F0A94E2F7842F90E050
:100796008223932302C0969587956A95E2F7982F50
:1007A60029C043B381E090E09C01062E02C0220FCF
:1007B600331F0A94E2F7842F90E08223932302C02A
:1007C600969587956A95E2F7982F14C040B381E015
:1007D60090E09C01062E02C0220F331F0A94E2F716
:1007E600842F90E08223932302C0969587956A957D
:0C07F600E2F7982F892F1F910F910895B2
:1008020040E050E060E070E081E490E00E942B0361
:1008120041E050E061E070E081E490E00E942B034F
:1008220040E050E062E070E081E490E00E942B033F
:1008320041E050E063E070E081E490E00E942B032D
:1008420040E050E064E070E081E490E00E942B031D
:1008520041E050E065E070E081E490E00E942B030B
:1008620040E050E066E070E081E490E00E942B03FB
:1008720041E050E067E070E081E490E00E942B03E9
:0A088200809161000E94160608959F
:10088C0041E050E060E070E081E490E00E942B03D6
:10089C0040E050E061E070E081E490E00E942B03C6
:1008AC0041E050E062E070E081E490E00E942B03B4
:1008BC0040E050E063E070E081E490E00E942B03A4
:1008CC0041E050E064E070E081E490E00E942B0392
:1008DC0040E050E065E070E081E490E00E942B0382
:1008EC0041E050E066E070E081E490E00E942B0370
:1008FC0040E050E067E070E081E490E00E942B0360
:0A090C00809161000E941606089514
:1009160040E050E060E070E081E490E00E942B034C
:1009260041E050E061E070E081E490E00E942B033A
:1009360040E050E062E070E081E490E00E942B032A
:1009460041E050E063E070E081E490E00E942B0318
:1009560041E050E064E070E081E490E00E942B0307
:1009660040E050E065E070E081E490E00E942B03F7
:1009760041E050E066E070E081E490E00E942B03E5
:1009860040E050E067E070E081E490E00E942B03D5
:0A099600809160000E94160608958B
:1009A00041E050E060E070E081E490E00E942B03C1
:1009B00040E050E061E070E081E490E00E942B03B1
:1009C00041E050E062E070E081E490E00E942B039F
:1009D00040E050E063E070E081E490E00E942B038F
:1009E00040E050E064E070E081E490E00E942B037E
:1009F00041E050E065E070E081E490E00E942B036C
:100A000040E050E066E070E081E490E00E942B035B
:100A100041E050E067E070E081E490E00E942B0349
:0A0A2000809160000E941606089500
:100A2A0040E050E060E070E081E490E00E942B0337
:100A3A0040E050E061E070E081E490E00E942B0326
:100A4A0040E050E062E070E081E490E00E942B0315
:100A5A0040E050E063E070E081E490E00E942B0304
:100A6A0040E050E064E070E081E490E00E942B03F3
:100A7A0040E050E065E070E081E490E00E942B03E2
:100A8A0040E050E066E070E081E490E00E942B03D1
:100A9A0040E050E067E070E081E490E00E942B03C0
:020AAA000895AD
:100AAC00CF93DF9365E084E40E94710666E084E4F2
:100ABC000E94710665E084E40E948906C82F66E0F6
:100ACC0084E40E948906D82FC13029F4811103C017
:100ADC000E94D00414C0C11105C0D13019F40E9479
:100AEC008B040DC0C13029F4D13019F40E941505C6
:100AFC0006C0C11104C0D11102C00E940104C13052
:100B0C0029F4D13031F080E090E005C080E090E035
:0C0B1C0002C081E090E0DF91CF910895CD
:100B2800CF93DF9365E084E40E94710666E084E475
:100B38000E94710665E084E40E948906C82F66E079
:100B480084E40E948906D82FC11105C0813019F4A8
:100B58000E94D00414C0C13029F4D11103C00E94EE
:100B68008B040DC0C13029F4D13019F40E94150549
:100B780006C0C11104C0D11102C00E944604C13090
:100B880029F4D13031F080E090E005C080E090E0B9
:0C0B980002C081E090E0DF91CF91089551
:100BA400DC01CB01880F991FAA1FBB1F880F991F57
:100BB400AA1FBB1F9C01AD01220F331F441F551FE9
:100BC40060E072E18AE790E00E94F4052150310967
:100BD40030BD29B98BB182608BB988E18AB986E8C6
:040BE40080BD089533
:100BE800A1E21A2EAA1BBB1BFD010DC0AA1FBB1F29
:100BF800EE1FFF1FA217B307E407F50720F0A21B9B
:100C0800B30BE40BF50B661F771F881F991F1A9407
:100C180069F760957095809590959B01AC01BD0131
:040C2800CF0108955B
:100C2C0097B3986097BB93B7906493BF93B7986052
:100C3C0093BF93B7916093BF93B7946093BF93B7EF
:100C4C00906193BF93B7906293BF80958CBF0895CA
:100C5C00CF92DF92EF926B01E82E06C09FEFC91A7C
:100C6C00D90AE90A0E948106F6018491E7FC808189
:0C0C7C008111F4CFEF90DF90CF9008952D
:100C88000E9401042FEF84E39CE0215080409040B3
:0C0C9800E1F700C000000E94150508955F
:100CA4000E9446042FE78AE196E02150804090405C
:0C0CB400E1F700C000000E941505089543
:100CC000EC010E9491060E949006CE010E949206BD
:060CD000CE010E948E0619
:0C0CD600EE0FFF1F0590F491E02D099433
:080CE20040E00E94BB020895EE
:080CEA0041E00E94BB020895E5
:080CF20041E00E942B0308956C
:080CFA0040E00E942B03089565
:080D02005D9BFECF8CB9089542
:080D0A005F9BFECF8CB1089540
:060D12000E949B030895FE
:040D18000C94000037
:040D1C000E94C2006F
:020D2000089534
:020D2200089532
:020D2400089530
:010D26009636
:010D27004B80
:00000001FF
