:100000000C949A000C94A8050C94A8050C94A805CF
:100010000C94A8050C94A8050C94A8050C94A805AC
:100020000C94A8050C94A8050C94A8050C94A8059C
:100030000C94A8050C94A8050C94A8050C94A8058C
:100040000C94A8050C94A8050C94A8050C94A8057C
:100050000C94A805C101DA01F3010C022402240268
:100060002402240224022402240224022402240260
:100070002402240224022402240224022402240250
:100080002402240224022402240224022402240240
:1000900024022402C101DA01F3010C0231024A02F6
:1000A00063027C02940294029402940294029402E9
:1000B0009402940294029402940294029402940290
:1000C0009402940294029402940294029402940280
:1000D00094029402940294029402940231024A021D
:1000E00063027C02A402B902CE02E302F702F70225
:1000F000F702F702F702F702F702F702F702F70238
:10010000F702F702F702F702F702F702F702F70227
:10011000F702F702F702F702F702F702F702F70217
:10012000F702F702A402B902CE02E3020060006106
:10013000000B5E0011241FBECFE5D8E0DEBFCDBFAF
:10014000ECE2F1E041E017C0B591A5913591259120
:10015000059107FD0CC095918591EF01F92FE82FCE
:1001600005900D92A217B307D9F7FE0104C01D92A6
:10017000A217B307E1F7E333F40731F70E94E80071
:080180000C946C05F894FFCF0C
:100188005B44454255475D205541525420496E69AC
:100198007469616C697A65642040393630300D0ABB
:1001A800004F4B3A460D0A00730D0A004F4B3A4276
:1001B8000D0A004F4B3A500D0A004F4B3A4E0D0AAC
:0801C800004F4B3A530D0A00F1
:1001D000C0E0D0E006C041E06C2F81E40E94B50190
:1001E0002196C830D105BCF365E084E40E948D05FA
:1001F00066E084E40E948D0560E083E40E9491053E
:1002000060E083E40E9495052FEF89E698E1215094
:1002100080409040E1F700C0000060E083E40E946D
:10022000990560E875E280E090E00E94CC0468E8FF
:1002300071E080E00E9456050E94A105863489F590
:1002400069EA71E080E00E9456050E9428052FE7C8
:1002500088E391E0215080409040E1F700C0000029
:1002600065E084E40E94A505C82F66E084E40E944E
:10027000A505C13099F4813089F40E940F042FE75D
:1002800088E391E0215080409040E1F700C00000F9
:1002900060EB71E080E00E945605CECF0E945004D2
:1002A000DFCF823489F564EB71E080E00E9456056F
:1002B0000E943F052FE788E391E021508040904065
:1002C000E1F700C0000065E084E40E94A505C82FA6
:1002D00066E084E40E94A505C13099F4813089F478
:1002E0000E940F042FE788E391E021508040904066
:1002F000E1F700C0000060EB71E080E00E9456056D
:100300009BCF0E948E04DFCF803589F46BEB71E0C8
:1003100080E00E9456050E9477052FEF80E792E06B
:10032000215080409040E1F700C0000085CF8E341E
:1003300089F462EC71E080E00E9456050E947F051E
:100340002FEF80E792E0215080409040E1F700C01D
:10035000000072CF833509F06FCF69EC71E080E067
:0A0360000E9456050E940F0467CFAB
:10036A0090E0FC01E154F109E432F10508F067C0BC
:10037A00E65DFF4F0C948705413059F42AB381E0BA
:10038A0090E002C0880F991F6A95E2F7822B8ABB18
:10039A0008952AB381E090E002C0880F991F6A95F8
:1003AA00E2F7809582238ABB0895413059F427B336
:1003BA0081E090E002C0880F991F6A95E2F7822BCC
:1003CA0087BB089527B381E090E002C0880F991F88
:1003DA006A95E2F78095822387BB0895413059F4E4
:1003EA0024B381E090E002C0880F991F6A95E2F772
:1003FA00822B84BB089524B381E090E002C0880F69
:10040A00991F6A95E2F78095822384BB089541304B
:10041A0059F421B381E090E002C0880F991F6A95D0
:10042A00E2F7822B81BB089521B381E090E002C0FC
:10043A00880F991F6A95E2F78095822381BB0895F8
:10044A0090E0FC01E154F109E432F10508F067C0DB
:10045A00E25BFF4F0C948705413059F42BB381E0DE
:10046A0090E002C0880F991F6A95E2F7822B8BBB36
:10047A0008952BB381E090E002C0880F991F6A9516
:10048A00E2F7809582238BBB0895413059F428B353
:10049A0081E090E002C0880F991F6A95E2F7822BEB
:1004AA0088BB089528B381E090E002C0880F991FA5
:1004BA006A95E2F78095822388BB0895413059F402
:1004CA0025B381E090E002C0880F991F6A95E2F790
:1004DA00822B85BB089525B381E090E002C0880F86
:1004EA00991F6A95E2F78095822385BB089541306A
:1004FA0059F422B381E090E002C0880F991F6A95EF
:10050A00E2F7822B82BB089522B381E090E002C019
:10051A00880F991F6A95E2F78095822382BB089516
:10052A000F931F93082F10E0F801E154F109E43208
:10053A00F10508F057C0EE58FF4F0C94870549B3F0
:10054A0081E090E09C01062E02C0220F331F0A941C
:10055A00E2F7842F90E08223932302C09695879531
:10056A006A95E2F7982F3EC046B381E090E09C017D
:10057A00062E02C0220F331F0A94E2F7842F90E05E
:10058A008223932302C0969587956A95E2F7982F5E
:10059A0029C043B381E090E09C01062E02C0220FDD
:1005AA00331F0A94E2F7842F90E08223932302C038
:1005BA00969587956A95E2F7982F14C040B381E023
:1005CA0090E09C01062E02C0220F331F0A94E2F724
:1005DA00842F90E08223932302C0969587956A958B
:0C05EA00E2F7982F892F1F910F910895C0
:1005F60040E050E060E070E081E490E00E94250277
:1006060041E050E061E070E081E490E00E94250264
:1006160040E050E062E070E081E490E00E94250254
:1006260041E050E063E070E081E490E00E94250242
:1006360040E050E064E070E081E490E00E94250232
:1006460041E050E065E070E081E490E00E94250220
:1006560040E050E066E070E081E490E00E94250210
:1006660041E050E067E070E081E490E00E942502FE
:0A067600809160000E9410050895B5
:1006800041E050E060E070E081E490E00E942502EB
:1006900040E050E061E070E081E490E00E942502DB
:1006A00041E050E062E070E081E490E00E942502C9
:1006B00040E050E063E070E081E490E00E942502B9
:1006C00041E050E064E070E081E490E00E942502A7
:1006D00040E050E065E070E081E490E00E94250297
:1006E00041E050E066E070E081E490E00E94250285
:1006F00040E050E067E070E081E490E00E94250275
:0A070000809160000E94100508952A
:10070A0040E050E060E070E081E490E00E94250261
:10071A0041E050E061E070E081E490E00E9425024F
:10072A0040E050E062E070E081E490E00E9425023F
:10073A0041E050E063E070E081E490E00E9425022D
:10074A0041E050E064E070E081E490E00E9425021C
:10075A0040E050E065E070E081E490E00E9425020C
:10076A0041E050E066E070E081E490E00E942502FA
:10077A0040E050E067E070E081E490E00E942502EA
:0A078A00809160000E9410050895A0
:1007940041E050E060E070E081E490E00E942502D6
:1007A40040E050E061E070E081E490E00E942502C6
:1007B40041E050E062E070E081E490E00E942502B4
:1007C40040E050E063E070E081E490E00E942502A4
:1007D40040E050E064E070E081E490E00E94250293
:1007E40041E050E065E070E081E490E00E94250281
:1007F40040E050E066E070E081E490E00E94250271
:1008040041E050E067E070E081E490E00E9425025E
:0A081400809160000E941005089515
:10081E0040E050E060E070E081E490E00E9425024C
:10082E0040E050E061E070E081E490E00E9425023B
:10083E0040E050E062E070E081E490E00E9425022A
:10084E0040E050E063E070E081E490E00E94250219
:10085E0040E050E064E070E081E490E00E94250208
:10086E0040E050E065E070E081E490E00E942502F7
:10087E0040E050E066E070E081E490E00E942502E6
:10088E0040E050E067E070E081E490E00E942502D5
:02089E000895BB
:1008A000CF93DF9365E084E40E948D0566E084E4E5
:1008B0000E948D0565E084E40E94A505C82F66E0CE
:1008C00084E40E94A505D82FC13029F4811103C00A
:1008D0000E94CA0314C0C11105C0D13019F40E948E
:1008E00085030DC0C13029F4D13019F40E940F04E2
:1008F00006C0C11104C0D11102C00E94FB02C13068
:1009000029F4D13031F080E090E005C080E090E043
:0C09100002C081E090E0DF91CF910895DB
:10091C00CF93DF9365E084E40E948D0566E084E468
:10092C000E948D0565E084E40E94A505C82F66E051
:10093C0084E40E94A505D82FC11105C0813019F49B
:10094C000E94CA0314C0C13029F4D11103C00E9403
:10095C0085030DC0C13029F4D13019F40E940F0465
:10096C0006C0C11104C0D11102C00E944003C130A5
:10097C0029F4D13031F080E090E005C080E090E0C7
:0C098C0002C081E090E0DF91CF9108955F
:10099800DC01CB01880F991FAA1FBB1F880F991F65
:1009A800AA1FBB1F9C01AD01220F331F441F551FF7
:1009B80060E072E18AE790E00E94EE04215031097C
:1009C80030BD29B98BB182608BB988E18AB986E8D4
:0409D80080BD089541
:1009DC00A1E21A2EAA1BBB1BFD010DC0AA1FBB1F37
:1009EC00EE1FFF1FA217B307E407F50720F0A21BA9
:1009FC00B30BE40BF50B661F771F881F991F1A9416
:100A0C0069F760957095809590959B01AC01BD013F
:040A1C00CF01089569
:100A200097B3986097BB93B7906493BF93B7986060
:100A300093BF93B7916093BF93B7946093BF93B7FD
:100A4000906193BF93B7906293BF80958CBF0895D8
:100A50000E94FB022FEF84E39CE0215080409040F5
:100A6000E1F700C000000E940F042FE78AE196E042
:0E0A7000215080409040E1F700C00000089542
:100A7E000E9440032FE78AE196E02150804090408B
:100A8E00E1F700C000000E940F042FE78AE196E014
:0E0A9E00215080409040E1F700C00000089514
:100AAC00CF92DF92EF926B01E82E06C09FEFC91A2E
:100ABC00D90AE90A0E949D05F6018491E7FC808120
:0C0ACC008111F4CFEF90DF90CF900895DF
:100AD800EC010E94AD050E94AC05CE010E94AE0556
:060AE800CE010E94AA05E8
:100AEE00813019F40E94850308950E940F04089521
:100AFE00813019F40E94CA0308950E940F040895CC
:0C0B0E00EE0FFF1F0590F491E02D0994FC
:080B1A0040E00E94B5010895BE
:080B220041E00E94B5010895B5
:080B2A0041E00E94250208953C
:080B320040E00E942502089535
:080B3A005D9BFECF8CB908950C
:080B42005F9BFECF8CB108950A
:060B4A000E9495020895CF
:040B50000C94000001
:040B54000E94C20039
:020B58000895FE
:020B5A000895FC
:020B5C000895FA
:010B5E004B4B
:00000001FF
